:100000000C9461000C9473000C9473000C947300B6
:100010000C9473000C9473000C9473000C94730094
:100020000C9473000C9473000C9473000C94730084
:100030000C9473000C9473000C9473000C94730074
:100040000C94C9000C9473000C9473000C9473000E
:100050000C9473000C9473000C9473000C94730054
:100060000C9473000C94730000000000240027001F
:100070002A000000000023002600290000000000E4
:10008000250028002B0004040404040404040202D4
:100090000202020203030303030301020408102007
:1000A0004080010204081020010204081020000012
:1000B0000008000201000003040700000000000027
:1000C000000011241FBECFEFD8E0DEBFCDBF21E07E
:1000D000A0E0B1E001C01D92AF30B207E1F70E948D
:1000E00013010C94F8010C940000833081F028F483
:1000F000813099F08230A9F008958730A9F08830D6
:10010000C9F08430B1F4809180008F7D03C080916C
:1001100080008F7780938000089584B58F7784BDA9
:10012000089584B58F7DFBCF8091B0008F77809349
:10013000B00008958091B0008F7DF9CF1F93CF93C9
:10014000DF93E6EBF0E09491E2EAF0E0D491EEE8A0
:10015000F0E0C491CC23B9F0182F992319F0892F1E
:100160000E947500EC2FF0E0EE0FFF1FE458FF4FE8
:10017000A591B4918FB7F894EC91111108C0D09566
:10018000DE23DC938FBFDF91CF911F910895DE2B8B
:10019000F8CF1F920F920FB60F9211242F933F9317
:1001A0008F939F93AF93BF9380910B0190910C011C
:1001B000A0910D01B0910E0130910A0123E0230FAF
:1001C0002D3758F50196A11DB11D20930A0180938A
:1001D0000B0190930C01A0930D01B0930E0180913F
:1001E000060190910701A0910801B09109010196C3
:1001F000A11DB11D8093060190930701A0930801F2
:10020000B0930901BF91AF919F918F913F912F9131
:100210000F900FBE0F901F90189526E8230F02969F
:10022000A11DB11DD2CF789484B5826084BD84B500
:10023000816084BD85B5826085BD85B5816085BDE1
:1002400080916E00816080936E0010928100809199
:100250008100826080938100809181008160809321
:100260008100809180008160809380008091B10046
:1002700084608093B1008091B00081608093B00071
:1002800080917A00846080937A0080917A00826005
:1002900080937A0080917A00816080937A008091C7
:1002A0007A00806880937A001092C100CEE9D0E095
:1002B000FE0124910AE810E0F80184918823C9F036
:1002C00090E0880F991FFC01E859FF4FA591B49168
:1002D000FC01E458FF4F459154913FB7F8949C912D
:1002E000822F809598239C93FA01908189238083A3
:1002F0003FBFE2EAF0E02491EEE8F0E08491882349
:1003000099F090E0880F991FFC01E859FF4FA591E3
:10031000B491FC01E458FF4F859194918FB7F89404
:10032000EC91E22BEC938FBF80E00E949E0092EB59
:10033000E92E90E0F92EAA24A394B12C30E0C32E2C
:1003400030E0D32EF7018491FE019490F80184905F
:1003500030E020E0882099F081110E947500E82D9E
:10036000F0E0EE0FFF1FEE58FF4FA591B4918C9176
:10037000982291E080E009F490E0292F382F8091B5
:10038000040190910501821B930B97FF03C0919587
:1003900081959109019749F480910201909103019F
:1003A00001969093030180930201309305012093FD
:1003B00004018091020190910301059791F48091CD
:1003C0000001909101019501281B390BC90130935F
:1003D0000101209300010E949E00109203011092DF
:1003E0000201C114D10409F4ADCF0E940000AACFCC
:0403F000F894FFCFAF
:00000001FF
