:100000000C945D000C9485000C9485000C94850084
:100010000C9485000C9485000C9485000C9485004C
:100020000C9485000C9485000C9485000C9485003C
:100030000C9485000C9485000C9485000C9485002C
:100040000C9439050C9485000C9485000C94850063
:100050000C9485000C9485000C9485000C9485000C
:100060000C9483050C948500000000080002010038
:100070000003040700000000000000000000000072
:10008000250028002B0000000000240027002A0083
:10009000040404040404040402020202020203032E
:1000A0000303030301020408102040800102040836
:1000B0001020010204081020A20611241FBECFEF59
:1000C000D8E0DEBFCDBF11E0A0E0B1E0E4EDF5E1A6
:1000D00002C005900D92AA32B107D9F722E0AAE238
:1000E000B1E001C01D92A631B207E1F710E0CDE505
:1000F000D0E004C02197FE010E94E20ACC35D1076E
:10010000C9F70E94D0060C94E80A0C94000090E015
:10011000FC01EC55FF4F249180579F4FFC018491C7
:10012000882399F090E0880F991FFC01EA57FF4F50
:10013000A591B491FC01E458FF4F859194918FB73C
:10014000F894EC91E22BEC938FBF089508950895F5
:10015000AF92BF92CF92DF92EF92FF920F931F93D5
:10016000CF93DF936C017B018B01040F151FEB0113
:100170005E01AE18BF08C017D10759F06991D601CA
:10018000ED91FC910190F081E02DC6010995892B3C
:1001900079F7C501DF91CF911F910F91FF90EF90FB
:1001A000DF90CF90BF90AF90089590E0FC01E859A8
:1001B000FF4F2491FC01EC55FF4F3491FC01E057B7
:1001C000FF4FE491EE23C9F0222339F0233001F1EF
:1001D000A8F4213019F1223029F1F0E0EE0FFF1FD1
:1001E000E458FF4FA591B4918FB7F894EC91611149
:1001F00026C030953E233C938FBF08952730A9F049
:100200002830C9F0243049F7809180008F7D03C0E9
:10021000809180008F7780938000DFCF84B58F77C7
:1002200084BDDBCF84B58F7DFBCF8091B0008F770D
:100230008093B000D2CF8091B0008F7DF9CF3E2B5C
:10024000DACF3FB7F8948091730190917401A09137
:100250007501B091760126B5A89B05C02F3F19F016
:100260000196A11DB11D3FBFBA2FA92F982F882736
:10027000BC01CD01620F711D811D911D42E0660F11
:10028000771F881F991F4A95D1F708958F929F92E3
:10029000AF92BF92CF92DF92EF92FF924B015C013F
:1002A0000E9421016B017C010E9421016C197D09D2
:1002B0008E099F09683E734081059105A8F321E0EE
:1002C000821A9108A108B10888EEC80E83E0D81EF2
:1002D000E11CF11C81149104A104B10429F7FF90E1
:1002E000EF90DF90CF90BF90AF909F908F90089548
:1002F000089520914B01260F3327331F21323105FA
:10030000ECF42091C801FC0190E080E0243069F019
:1003100082E00895A0914B012191AC01455D5E4FB3
:10032000A40FB52FB11D2C930196861798F38091D9
:100330004B01680F60934B0180E0089581E00895C0
:100340001092C80181E08093C7011092A20161E080
:1003500082E10E94D50061E083E10E94D500E9EBD3
:10036000F0E080818E7F808380818D7F808388E430
:100370008093B80085E48093BC000895CF93DF9309
:1003800091E090932A018823B9F0C091B800D091F0
:10039000BA008091BC008A7B8093BC0060E082E15F
:1003A0000E94D50060E083E10E94D5000E94A00178
:1003B000D093BA00C093B800DF91CF9108958F9287
:1003C0009F92AF92BF92CF92DF92EF92FF920F93E4
:1003D0001F93CF93DF93D091F101D13208F0D7C0B2
:1003E000182FC091F0010E9421016B017C018091C6
:1003F000C80181116BC082E08093C8011093C701CE
:100400008FEF8093C6011092C501D093C401A0ED77
:10041000B1E0E4EAF1E080E0D81391C01092A301CA
:100420008091A301CC0FC82BC093A3018091A2019E
:10043000813009F088C01092A2010E9421016B0155
:100440007C018091A3018093BB008091CA019091AF
:10045000CB01A091CC01B091CD01892B8A2B8B2BA4
:10046000A1F00E9421010091CA011091CB012091BD
:10047000CC013091CD016C197D098E099F090617B9
:1004800017072807390708F442C08091BC0083FD94
:10049000D8CF85EC8093BC000E9421016B017C01C8
:1004A0008091C801823009F450C08091C6018F3F0D
:1004B00009F46FC08091C601803209F46CC080914C
:1004C000C601803309F469C084E026C08091CA0166
:1004D0009091CB01A091CC01B091CD01892B8A2BB9
:1004E0008B2B09F484CF0E9421018090CA01909047
:1004F000CB01A090CC01B090CD016C197D098E0983
:100500009F0986169706A806B90608F070CF809155
:10051000C9010E94BE0185E01092CF011092F10145
:100520001092CE01DF91CF911F910F91FF90EF902C
:10053000DF90CF90BF90AF909F908F9008959D9146
:1005400091938F5F69CF85EEA5CF8091CA0190917D
:10055000CB01A091CC01B091CD01892B8A2B8B2BA3
:1005600009F49ECF0E9421010091CA011091CB0194
:100570002091CC013091CD016C197D098E099F0924
:10058000061717072807390708F08ACFC0CF81E080
:10059000C3CF80E0C1CF82E0BFCF83E0BDCF08955D
:1005A000E0917C0180917B01E81730F4F0E0E358A2
:1005B000FE4F808190E008958FEF9FEF0895909116
:1005C0007C0180917B012FEF3FEF981748F4E92FD2
:1005D000F0E0E358FE4F208130E09F5F90937C0174
:1005E000C901089580917B0190917C01891B990B31
:1005F0000895CF92DF92EF92FF920F931F93CF93C4
:10060000DF937C01CB018A012091CE01222389F066
:10061000EB016B01C40ED51ECC15DD0569F06991A7
:10062000D701ED91FC910190F081E02DC701099572
:10063000F3CF642F0E947901C801DF91CF911F9100
:100640000F91FF90EF90DF90CF900895CF93DF93BD
:100650001F92CDB7DEB769832091CE012223F9F036
:100660002091F101203258F021E030E0FC01338389
:10067000228390E080E00F90DF91CF9108958091E8
:10068000CF01E82FF0E0E053FE4F998190838F5F18
:100690008093CF018093F10181E090E0ECCF61E0A5
:1006A000CE0101960E947901F7CF682F82EF91E089
:1006B0000C94260390E080E00895FC010190002056
:1006C000E9F73197AF01481B590BBC018EEF91E060
:1006D0000C94A8008F929F92AF92BF920F931F939A
:1006E000CF93DF93CDB7DEB7A1970FB6F894DEBFF7
:1006F0000FBECDBF19A2423008F44AE08E010F5D53
:100700001F4F842E912CB12CA12CA50194010E9485
:10071000C00AE62FB901CA01EA30F4F4E05DD8015D
:10072000EE938D01232B242B252B79F790E080E08D
:10073000109719F0CD010E945D03A1960FB6F894B1
:10074000DEBF0FBECDBFDF91CF911F910F91BF9044
:10075000AF909F908F900895E95CE1CFCF93DF93A6
:10076000EC0160E08E810E94D50061E08E810E94E4
:10077000D50060E08E810E94D5008BE891E0019762
:10078000F1F7DF91CF910895CF92DF92EF92FF9230
:100790000F931F93CF93DF936C017C0187E0E80EEA
:1007A000F11CD0E0C0E0062F10E0B8010C2E02C012
:1007B000759567950A94E2F76170F70181917F0161
:1007C0000E94D5002196C430D10579F7C601DF918A
:1007D000CF911F910F91FF90EF90DF90CF900C94ED
:1007E000AE03CF92DF92EF92FF920F931F93CF93BE
:1007F000DF93EC01F62E642F8C810E94D5008D8151
:100800008F3F19F060E00E94D5000F2D10E08F851A
:1008100084FF25C06E0187E0C80ED11CF12CE12CAD
:10082000B8010E2C02C0759567950A94E2F76170C5
:10083000F60181916F010E94D500FFEFEF1AFF0AC8
:1008400088E0E816F10461F7CE01DF91CF911F91A6
:100850000F91FF90EF90DF90CF900C94AE03B80112
:1008600084E0759567958A95E1F7CE010E94C403EF
:100870006F2DCE01DF91CF911F910F91FF90EF90DF
:10088000DF90CF900C94C403CF93DF93823029F490
:1008900090910D02986090930D0280931102109236
:1008A000120280E48093130280E18093140280E5B9
:1008B00080931502809102020E94870080910302BA
:1008C0008F3F11F00E948700809104020E948700F0
:1008D000CEEFD1E09E012E5F314080910D0284FD6C
:1008E0000AC084E090E02196281739073CF48E81F5
:1008F0000E948700EFCF88E090E0F5CF8BE39DE08A
:100900000197F1F760E0809102020E94D50060E05B
:10091000809104020E94D500809103028F3F19F05C
:1009200060E00E94D50060910D0264FD45C063E067
:100930008EEF91E00E94C403CBE4D6E4CE01019790
:10094000F1F763E08EEF91E00E94C4032197F1F785
:1009500063E08EEF91E00E94C40383E592E001978B
:10096000F1F762E08EEF91E00E94C40360910D0206
:10097000606240E08EEF91E00E94F10384E080939A
:100980000E0240E06CE08EEF91E00E94F10340E047
:1009900061E08EEF91E00E94F1038BE39FE101970C
:1009A000F1F782E080930F0240E066E08EEF91E085
:1009B000DF91CF910C94F103606240E08EEF91E003
:1009C0000E94F1038BE496E40197F1F760910D0228
:1009D000606240E08EEF91E00E94F10383E592E0D7
:1009E0000197F1F760910D02606240E08EEF91E0B7
:1009F0000E94F103BBCF41E00E94F10381E090E04F
:100A0000089585ED8093BC008091CA019091CB013F
:100A1000A091CC01B091CD010796A11DB11D23E09D
:100A2000B695A795979587952A95D1F72091BC0003
:100A300024FD03C01092C80108954091CA0150914D
:100A4000CB016091CC017091CD01452B462B472BFA
:100A500069F30097A105B10541F025E32A95F1F767
:100A600000000197A109B109E1CF8091C9010C945F
:100A7000BE011F920F920FB60F9211242F933F9336
:100A80008F939F93AF93BF9380916F01909170016B
:100A9000A0917101B091720130916E0123E0230F9A
:100AA0002D3758F50196A11DB11D20936E0180933D
:100AB0006F0190937001A0937101B09372018091C6
:100AC000730190917401A0917501B0917601019626
:100AD000A11DB11D8093730190937401A0937501C2
:100AE000B0937601BF91AF919F918F913F912F91DC
:100AF0000F900FBE0F901F90189526E8230F0296B7
:100B0000A11DB11DD2CF1F920F920FB60F921124CB
:100B10002F933F934F935F936F937F938F939F9305
:100B2000AF93BF93EF93FF938091B900887F803696
:100B300009F44AC0F0F5883209F4A7C018F58031ED
:100B400009F49BC0B8F4882309F4F9C0883009F48B
:100B500094C0FF91EF91BF91AF919F918F917F9141
:100B60006F915F914F913F912F910F900FBE0F901A
:100B70001F901895883109F488C0803251F780930E
:100B8000C60114C0803409F49DC040F48033B9F329
:100B90008833F9F68093C60185ECB0C0803509F43E
:100BA00085C0883509F496C0883499F60E940105FD
:100BB000D0CF883909F48CC038F5883729F050F443
:100BC000883611F0803729F683E08093C8011092AF
:100BD0006D0157C0883809F47BC0803919F080381E
:100BE00009F0B7CF80916D01803208F071C0E091BB
:100BF0006D0181E08E0F80936D018091BB00F0E06C
:100C0000E35BFE4F80833DC0803B39F0E0F4803AE7
:100C100009F479C0883A09F09CCF84E08093C80138
:100C200010924C0110924B01E0917901F0917A0100
:100C3000099580914B0181110FC081E080934B0198
:100C400010922B0109C0803C09F4A6CF883C09F41E
:100C5000A3CF883B09F07DCFE0914C0181E08E0F5E
:100C600080934C01F0E0E55DFE4F80818093BB00F6
:100C700090914C0180914B0129C08091A3018093F8
:100C8000BB0085EC8093BC0064CF9091C50180913E
:100C9000C401981758F5E091C50181E08E0F80934B
:100CA000C501F0E0EC55FE4F8081E9CFE091C50130
:100CB00081E08E0F8093C5018091BB00F0E0EC5580
:100CC000FE4F80839091C5018091C4019817C8F2AE
:100CD00085E8D8CFE091C50181E08E0F8093C501F2
:100CE0008091BB00F0E0EC55FE4F80838091C701FE
:100CF00081115CCF81E08093A20184EA8093BC00E3
:100D00001092C80126CF85EC8093BC001092C801D8
:100D100080916D01803230F4E0916D01F0E0E35B91
:100D2000FE4F108260916D0170E0E0917701F091CB
:100D300078018DE491E0099510926D010ACF10922F
:100D4000C60134CFE2EFF1E01382128288EE93E025
:100D5000A0E0B0E084839583A683B78384E091E02C
:100D600091838083EEEFF1E01382128286E191E0BD
:100D7000918380838DE084838FEF85838CE08683ED
:100D80008BE087838AE0808789E0818788E082879B
:100D90001386148615861686178681E00C94440403
:100DA000789484B5826084BD84B5816084BD85B546
:100DB000826085BD85B5816085BD80916E00816052
:100DC00080936E00109281008091810082608093F8
:100DD00081008091810081608093810080918000FA
:100DE0008160809380008091B10084608093B10025
:100DF0008091B00081608093B00080917A0084601F
:100E000080937A0080917A00826080937A0080914A
:100E10007A00816080937A0080917A008068809364
:100E20007A001092C10010927C0110927B01109206
:100E3000CF011092F1010E94A00186EA90E0909308
:100E40007A018093790187EA90E09093780180930A
:100E5000770182E00E94440481E08093CE018CE41B
:100E60008093F0018CEA90E00E94550381E090E0CD
:100E70000E94550381E00E94DF016EEE72E080E087
:100E800090E00E944601C1E08CE4382E0BE31FE1A4
:100E900095EE892ED5EC20E0A22E20E0B22E9924EA
:100EA0009A94C093CE013092F0011092CF0110922B
:100EB000F1018EEE90E00E94550381E00E94DF0177
:100EC0006EEE72E080E090E00E94460140E061E05A
:100ED0008EEF91E00E94F103C8010197F1F7C093F2
:100EE000CE011092CF011092F1018AEA90E00E94A7
:100EF000550381E00E94DF010E9421016B017C010A
:100F00008091C801811161C0C093C801C093C7011D
:100F10009092C6011092C501C093C401C093A30171
:100F20008091A30188698093A3018091A2018130FF
:100F300009F0B6C01092A2010E9421016B017C0150
:100F40008091A3018093BB008091CA019091CB0155
:100F5000A091CC01B091CD01892B8A2B8B2BA1F0D4
:100F60000E9421014090CA015090CB016090CC01B9
:100F70007090CD016C197D098E099F0946165706A0
:100F80006806790608F442C08091BC0083FDD8CF82
:100F9000D093BC000E9421016B017C018091C801AB
:100FA000813009F480C08091C501823008F09DC075
:100FB0008091C501E4EAF1E0ADE7B1E090E0981777
:100FC00051F121912D939F5FFACF8091CA019091A9
:100FD000CB01A091CC01B091CD01892B8A2B8B2B19
:100FE00009F48ECF0E9421014090CA015090CB019C
:100FF0006090CC017090CD016C197D098E099F091C
:10100000461657066806790608F07ACF8091C9011E
:101010000E94BE0180E010927C0180937B0182EFF0
:1010200091E00E94DF02F82E8093A10182EF91E00F
:101030000E94DF02E82E6F2DFF0C770B880B990BB7
:101040000E94990920E8E21609F451C060939D01BD
:1010500070939E0180939F019093A001C0909D0189
:10106000D0909E01E0909F01F090A001A701960111
:10107000C701B6010E94BB0A882309F43FC08EE174
:1010800091E00E945D0368EE73E080E090E00E94D2
:101090004601A114B10409F404CF0E94000001CF5D
:1010A0008092BC0077CF8091CA019091CB01A09132
:1010B000CC01B091CD01892B8A2B8B2B09F46ECFFB
:1010C0000E9421014090CA015090CB016090CC0158
:1010D0007090CD016C197D098E099F09461657063F
:1010E0006806790608F05ACF91CF82E063CF20E0FE
:1010F00030E040E05FE30E94F708A8CF2601370107
:10110000E89477F82FEF3FEF4FE75FE7C301B201B5
:101110000E94BB0A81110DC02FEF3FEF4FE75FE741
:10112000C301B2010E94630918161CF482E291E027
:10113000A8CF2FEF3FEF4FE75FE4C701B6010E9452
:10114000490A18161CF486E291E09BCF2FEF3FEF7F
:101150004FE75FECC701B6010E94630987FDF3CF3B
:1011600020E030E0A901C701B6010E94630987FFB2
:101170000AC041E06DE28EEF91E00E94F103F7FAC0
:10118000F094F7F8F0942DEC3CEC4CE45DE3C701EF
:10119000B6010E94F7082B013C010E9468096B010F
:1011A0007C010E9497099B01AC01C301B2010E941E
:1011B000F6082B013C014AE0C701B6010E946A0310
:1011C00041E06EE28EEF91E00E94F10320E030E01A
:1011D00040E251E4C301B2010E944E0A0E94680934
:1011E00090E080E04AE00E946A034DCF5058BB2750
:1011F000AA270E940E090C940F0A0E94010A38F0D7
:101200000E94080A20F039F49F3F19F426F40C9448
:10121000FE090EF4E095E7FB0C94F809E92F0E9413
:10122000200A58F3BA17620773078407950720F05E
:1012300079F4A6F50C94420A0EF4E0950B2EBA2F21
:10124000A02D0B01B90190010C01CA01A0011124CC
:10125000FF27591B99F0593F50F4503E68F11A1678
:10126000F040A22F232F342F4427585FF3CF469509
:1012700037952795A795F0405395C9F77EF41F162B
:10128000BA0B620B730B840BBAF09150A1F0FF0FF5
:10129000BB1F661F771F881FC2F70EC0BA0F621FE1
:1012A000731F841F48F4879577956795B795F795D1
:1012B0009E3F08F0B0CF9395880F08F09927EE0F66
:1012C0009795879508950E94D40908F481E00895C0
:1012D0000E94280A88F09F5798F0B92F9927B75194
:1012E000B0F0E1F0660F771F881F991F1AF0BA95CA
:1012F000C9F714C0B13091F00E94420AB1E00895DC
:101300000C94420A672F782F8827B85F39F0B93FCD
:10131000CCF3869577956795B395D9F73EF490957C
:101320008095709561957F4F8F4F9F4F0895E894FA
:1013300009C097FB3EF490958095709561957F4F1D
:101340008F4F9F4F9923A9F0F92F96E9BB279395CB
:10135000F695879577956795B795F111F8CFFAF4DB
:10136000BB0F11F460FF1BC06F5F7F4F8F4F9F4F0C
:1013700016C0882311F096E911C0772321F09EE86A
:10138000872F762F05C0662371F096E8862F70E0D0
:1013900060E02AF09A95660F771F881FDAF7880FAA
:1013A0009695879597F90895990F0008550FAA0B00
:1013B000E0E8FEEF16161706E807F907C0F0121668
:1013C0001306E407F50798F0621B730B840B950B6B
:1013D00039F40A2661F0232B242B252B21F40895C0
:1013E0000A2609F4A140A6958FEF811D811D08955D
:1013F00097F99F6780E870E060E008959FEF80ECC8
:10140000089500240A94161617061806090608956A
:1014100000240A9412161306140605060895092ED0
:101420000394000C11F4882352F0BB0F40F4BF2B3F
:1014300011F460FF04C06F5F7F4F8F4F9F4F08957F
:1014400057FD9058440F551F59F05F3F71F0479575
:10145000880F97FB991F61F09F3F79F0879508955A
:10146000121613061406551FF2CF4695F1DF08C079
:10147000161617061806991FF1CF86957105610596
:1014800008940895E894BB2766277727CB0197F93E
:1014900008950E94D40908F48FEF08950E94610A0C
:1014A0000C940F0A0E94010A38F00E94080A20F0EA
:1014B000952311F00C94F8090C94FE0911240C9456
:1014C000430A0E94200A70F3959FC1F3950F50E0E4
:1014D000551F629FF001729FBB27F00DB11D639FE6
:1014E000AA27F00DB11DAA1F649F6627B00DA11D8C
:1014F000661F829F2227B00DA11D621F739FB00D32
:10150000A11D621F839FA00D611D221F749F3327A1
:10151000A00D611D231F849F600D211D822F762F3A
:101520006A2F11249F5750409AF0F1F088234AF017
:10153000EE0FFF1FBB1F661F771F881F9150504083
:10154000A9F79E3F510580F00C94F8090C94430ACA
:101550005F3FE4F3983ED4F3869577956795B7950A
:10156000F795E7959F5FC1F7FE2B880F911D969524
:10157000879597F908950E94D409880B990B0895CF
:10158000A1E21A2EAA1BBB1BFD010DC0AA1FBB1F87
:10159000EE1FFF1FA217B307E407F50720F0A21BF9
:1015A000B30BE40BF50B661F771F881F991F1A9466
:1015B00069F760957095809590959B01AC01BD0190
:1015C000CF010895EE0FFF1F0590F491E02D0994CF
:0415D000F894FFCFBD
:1015D400000000002603F9025A03CF02F202DF02E0
:1015E400D00200000000FB04A8005A0378016E61D9
:0A15F4006E00696E66006F766600F7
:00000001FF
