:100000000C9462000C948A000C948A000C948A0070
:100010000C948A000C948A000C948A000C948A0038
:100020000C948A000C948A000C948A000C948A0028
:100030000C948A000C948A000C948A000C948A0018
:100040000C94DA030C948A000C94A8030C94820399
:100050000C948A000C948A000C948A000C948A00F8
:100060000C948A000C948A000000000024002700F1
:100070002A0000000000250028002B0000000000DE
:1000800023002600290004040404040404040202DA
:100090000202020203030303030301020408102007
:1000A0004080010204081020010204081020000012
:1000B0000008000201000003040700000000000027
:1000C0000000550511241FBECFEFD8E0DEBFCDBF25
:1000D00011E0A0E0B1E0E8EAFBE002C005900D927B
:1000E000AA31B107D9F721E0AAE1B1E001C01D9220
:1000F000A63CB207E1F710E0C2E6D0E004C02197C9
:10010000FE010E94CC05C136D107C9F70E94240424
:100110000C94D2050C940000AF92BF92CF92DF9264
:10012000EF92FF920F931F93CF93DF936C017B01AC
:100130008B01040F151FEB015E01AE18BF08C0173D
:10014000D10759F06991D601ED91FC910190F081B0
:10015000E02DC6010995892B79F7C501DF91CF9173
:100160001F910F91FF90EF90DF90CF90BF90AF90D5
:100170000895FC01538D448D252F30E0842F90E0AD
:10018000821B930B541710F0CF9608950197089592
:10019000FC01918D828D981761F0A28DAE0FBF2F5B
:1001A000B11D5D968C91928D9F5F9F73928F90E0B1
:1001B00008958FEF9FEF0895FC01918D828D981720
:1001C00031F0828DE80FF11D858D90E008958FEF5D
:1001D0009FEF0895FC01918D228D892F90E0805C26
:1001E0009F4F821B91098F739927089589E291E0AF
:1001F0000E94EA0021E0892B09F420E0822F089573
:1002000080E090E0892B29F00E94F60081110C9487
:1002100000000895FC01A48DA80FB92FB11DA35AA9
:10022000BF4F2C91848D90E001968F739927848F16
:10023000A689B7892C93A089B1898C918370806439
:100240008C93938D848D981306C00288F389E02DDA
:1002500080818F7D80830895EF92FF920F931F938B
:10026000CF93DF93EC0181E0888F9B8D8C8D981369
:100270001AC0E889F989808185FF15C09FB7F89475
:10028000EE89FF896083E889F989808183708064C1
:1002900080839FBF81E090E0DF91CF911F910F910C
:1002A000FF90EF900895F62E0B8D10E00F5F1F4F1B
:1002B0000F731127E02E8C8D8E110CC00FB607FC2A
:1002C000FACFE889F989808185FFF5CFCE010E94B8
:1002D0000A01F1CFEB8DEC0FFD2FF11DE35AFF4F1B
:1002E000F0829FB7F8940B8FEA89FB898081806246
:1002F000CFCFCF93DF93EC01888D8823B9F0AA8903
:10030000BB89E889F9898C9185FD03C0808186FDD0
:100310000DC00FB607FCF7CF8C9185FFF2CF80811F
:1003200085FFEDCFCE010E940A01E9CFDF91CF9189
:100330000895833081F028F4813099F08230A9F05B
:1003400008958730A9F08830C9F08430B1F48091E5
:1003500080008F7D03C0809180008F778093800024
:10036000089584B58F7784BD089584B58F7DFBCFC4
:100370008091B0008F778093B00008958091B00095
:100380008F7DF9CFCF93DF93282F30E0F901E2552D
:10039000FF4F8491F901E656FF4FD491F901EA57D6
:1003A000FF4FC491CC23A1F081110E949901EC2F41
:1003B000F0E0EE0FFF1FE458FF4FA591B491EC91D0
:1003C000ED2381E090E009F480E0DF91CF91089582
:1003D00080E090E0FACF1F93CF93DF93282F30E097
:1003E000F901E255FF4F8491F901E656FF4FD49190
:1003F000F901EA57FF4FC491CC23A9F0162F8111C0
:100400000E949901EC2FF0E0EE0FFF1FEE58FF4F16
:10041000A591B4918FB7F894EC91111108C0D095C3
:10042000DE23DC938FBFDF91CF911F910895DE2BE8
:10043000F8CFCF93DF9390E0FC01E656FF4F249175
:100440008A579F4FFC0184918823D1F090E0880F58
:10045000991FFC01E859FF4FA591B491FC01EE589A
:10046000FF4FC591D491623071F49FB7F8943C91DD
:10047000822F809583238C93E8812E2B28839FBF26
:10048000DF91CF9108958FB7F894EC912E2B2C9398
:100490008FBFF6CFCF93DF93EC0161E089E00E943C
:1004A0001902209731F460E089E0DF91CF910C943C
:1004B000EB01CF3FD10511F461E0F6CFE7EBF0E0BF
:1004C000E491E33029F140F4E130B1F0E230D9F0C9
:1004D000C038D1058CF7E7CFE73021F1E83051F192
:1004E000E430B1F780918000806280938000D093E7
:1004F0008B00C0938A0004C084B5806884BDC7BDEA
:10050000DF91CF91089584B5806284BDC8BDF8CFD6
:1005100080918000806880938000D0938900C09390
:100520008800EECF8091B00080688093B000C093C7
:10053000B300E6CF8091B00080628093B000C0939A
:10054000B400DECF3FB7F89480911F019091200155
:10055000A0912101B091220126B5A89B05C02F3F93
:1005600019F00196A11DB11D3FBFBA2FA92F982FD9
:100570008827BC01CD01620F711D811D911D42E0D4
:10058000660F771F881F991F4A95D1F708958F929C
:100590009F92AF92BF92CF92DF92EF92FF920E9412
:1005A000A2024B015C0188EEC82E83E0D82EE12C1C
:1005B000F12C0E94A202681979098A099B09683EF8
:1005C000734081059105A8F321E0C21AD108E10822
:1005D000F10888EE880E83E0981EA11CB11CC1149E
:1005E000D104E104F10429F7FF90EF90DF90CF9060
:1005F000BF90AF909F908F9008958F929F92AF92EF
:10060000BF920F931F93CF93DF93CDB7DEB7A19720
:100610000FB6F894DEBF0FBECDBF19A2423008F46A
:100620004AE08E010F5D1F4F842E912CB12CA12C1E
:10063000A50194010E949605E62FB901CA01EA308E
:1006400044F5E05DD801EE938D01232B242B252B5F
:1006500079F790E080E0109769F0FD0101900020AB
:10066000E9F73197AF014A1B5B0BBD0189E291E0CD
:100670000E948C00A1960FB6F894DEBF0FBECDBFCE
:10068000DF91CF911F910F91BF90AF909F908F906E
:100690000895E95CD7CFCF92DF92EF92FF92CF938C
:1006A000DF936C01092E000CEE08FF0897FF23C0B2
:1006B0006DE289E291E00E942C01EC016627772728
:1006C000CB016C197D098E099F094AE00E94FD0249
:1006D000C80FD91F42E050E066E171E089E291E085
:1006E0000E948C008C0F9D1FDF91CF91FF90EF90A7
:1006F000DF90CF9008954AE0C701B6010E94FD0245
:10070000EC01E8CF1F920F920FB60F9211242F9396
:100710003F934F935F936F937F938F939F93AF9389
:10072000BF93EF93FF9389E291E00E940A01FF914A
:10073000EF91BF91AF919F918F917F916F915F9159
:100740004F913F912F910F900FBE0F901F901895D2
:100750001F920F920FB60F9211242F938F939F9396
:10076000EF93FF93E0913901F0913A018081E0919C
:100770003F01F091400182FD1BC0908180914201B8
:100780008F5F8F7320914301821741F0E091420106
:10079000F0E0E75DFE4F958F80934201FF91EF916E
:1007A0009F918F912F910F900FBE0F901F901895D2
:1007B0008081F4CF1F920F920FB60F9211242F93C6
:1007C0003F938F939F93AF93BF9380911B01909121
:1007D0001C01A0911D01B0911E0130911A0123E06E
:1007E000230F2D3758F50196A11DB11D20931A0135
:1007F00080931B0190931C01A0931D01B0931E01D7
:1008000080911F0190912001A0912101B0912201BE
:100810000196A11DB11D80931F0190932001A0930B
:100820002101B0932201BF91AF919F918F913F9190
:100830002F910F900FBE0F901F90189526E8230F51
:100840000296A11DB11DD2CF789484B5826084BD7B
:1008500084B5816084BD85B5826085BD85B58160C4
:1008600085BD80916E00816080936E001092810042
:1008700080918100826080938100809181008160FD
:1008800080938100809180008160809380008091BE
:10089000B10084608093B1008091B000816080934A
:1008A000B00080917A00846080937A0080917A0011
:1008B000826080937A0080917A00816080937A00D0
:1008C00080917A00806880937A001092C100E09154
:1008D0003901F0913A0182E08083E0913501F09195
:1008E00036011082E0913701F09138018FEC80835E
:1008F00010924101E0913D01F0913E0186E080833C
:10090000E0913B01F0913C01808180618083E09126
:100910003B01F0913C01808188608083E0913B0144
:10092000F0913C01808180688083E0913B01F091EF
:100930003C0180818F7D808361E089E00E94190203
:1009400061E082E00E94190261E083E00E941902E6
:1009500062E084E00E94190262E085E00E941902D0
:1009600060E082E00E94EB0160E083E00E94EB0126
:10097000BB24BA94CAE0D0E000E010E0EE24E39497
:10098000F12C99E0C92ED12C84E00E94C2019093F1
:100990002801809327012091020130910301821BDD
:1009A000930B019671F561E082E00E94EB0160E03B
:1009B00083E00E94EB01F0922601E0922501209154
:1009C0002501309126012B303105DCF4B29EC001A7
:1009D000B39E900D1124BE010E9482054B01CB01F4
:1009E0000E944A02C4010E944B030E94C7028091E8
:1009F000250190912601019690932601809325016F
:100A0000DECF80912701909128019093030180937C
:100A1000020185E00E94C20190932401809323018A
:100A20002091000130910101821B930B019649F541
:100A3000D0922601C09225012091250130912601F6
:100A400037FD1BC0B29EC001B39E900D1124BE01A4
:100A50000E9482054B01CB010E944A02C4010E9400
:100A60004B030E94C70280912501909126010197B6
:100A70009093260180932501DFCF61E083E00E94FF
:100A8000EB018091230190912401909301018093C7
:100A900000010115110509F477CF0E94F6008823A3
:100AA00009F472CF0E9400006FCFE9E2F1E01382F7
:100AB000128288EE93E0A0E0B0E084839583A68361
:100AC000B78388E091E09183808385EC90E09587FF
:100AD000848784EC90E09787868780EC90E0918B08
:100AE000808B81EC90E0938B828B82EC90E0958BF5
:100AF000848B86EC90E0978B868B118E128E138EF2
:100B0000148E089597FB072E16F4009407D077FDF6
:100B100009D00E94B80507FC05D03EF49095819558
:100B20009F4F0895709561957F4F0895A1E21A2E09
:100B3000AA1BBB1BFD010DC0AA1FBB1FEE1FFF1F81
:100B4000A217B307E407F50720F0A21BB30BE40BD1
:100B5000F50B661F771F881F991F1A9469F7609518
:100B60007095809590959B01AC01BD01CF010895D2
:100B7000AA1BBB1B51E107C0AA1FBB1FA617B707C3
:100B800010F0A61BB70B881F991F5A95A9F78095DF
:100B90009095BC01CD010895EE0FFF1F0590F491D3
:080BA000E02D0994F894FFCF49
:100BA80001000100000000002C018C00B90079014F
:0A0BB800EA00C800DC000D0A00008E
:00000001FF
