:020000040000FA
:100000000C945D000C9411030C94EA020C9485008E
:100010000C9485000C9485000C9485000C9485004C
:100020000C9485000C9485000C9485000C9485003C
:100030000C9485000C9485000C9485000C9485002C
:100040000C9448020C9485000C94B8020C94920213
:100050000C9485000C9485000C9485000C9485000C
:100060000C9485000C9485000000000024002700FB
:100070002A0000000000250028002B0004040404CE
:100080000404040402020202020203030303030342
:10009000010204081020408001020408102001021F
:1000A00004081020000000080002010000030407FB
:1000B0000000000000000000680411241FBECFEF04
:1000C000D8E0DEBFCDBF21E0A8E1B1E001C01D92C4
:1000D000A23CB207E1F711E0A0E0B1E0EEE6F9E002
:1000E00002C005900D92A831B107D9F710E0CDE517
:1000F000D0E004C02197FE010E94AF04CC35D107A7
:10010000C9F70E9438030C94B5040C940000ECEA83
:10011000F0E02491E8E9F0E09491E4E8F0E0E49183
:10012000EE23C9F0222339F0233001F1A8F4213065
:1001300019F1223029F1F0E0EE0FFF1FEE58FF4FCA
:10014000A591B4912FB7F894EC91811126C09095A8
:100150009E239C932FBF08952730A9F02830C9F023
:10016000243049F7209180002F7D03C0209180002A
:100170002F7720938000DFCF24B52F7724BDDBCFEE
:1001800024B52F7DFBCF2091B0002F772093B000B6
:10019000D2CF2091B0002F7DF9CF9E2BDACFAF9236
:1001A000BF92CF92DF92EF92FF920F931F93CF9364
:1001B000DF936C017B018B01040F151FEB015E01C6
:1001C000AE18BF08C017D10759F06991D601ED915B
:1001D000FC910190F081E02DC6010995892B79F7FA
:1001E000C501DF91CF911F910F91FF90EF90DF90AC
:1001F000CF90BF90AF900895FC01538D448D252F73
:1002000030E0842F90E0821B930B541710F0CF96B0
:10021000089501970895FC01918D828D981761F0E2
:10022000A28DAE0FBF2FB11D5D968C91928D9F5FF9
:100230009F73928F90E008958FEF9FEF0895FC01D8
:10024000918D828D981731F0828DE80FF11D858D8B
:1002500090E008958FEF9FEF08952FB7F894809165
:10026000210190912201A0912301B09124012FBF7F
:1002700080932D0190932E01A0932F01B093300114
:1002800085E291E00E941F0197FF26C02FB7F894E6
:100290008091210190912201A0912301B09124012C
:1002A0002FBF40912D0150912E0160912F0170912F
:1002B0003001841B950BA60BB70B4091290150917F
:1002C0002A0160912B0170912C0184179507A607D4
:1002D000B707B0F28FEF9FEF0895FC01918D228D4B
:1002E000892F90E0805C9F4F821B91098F73992723
:1002F000089585E291E00E946D0121E0892B09F4C7
:1003000020E0822F089580E090E0892B29F00E9460
:10031000790181110C9400000895FC01A48DA80FAF
:10032000B92FB11DA35ABF4F2C91848D90E0019637
:100330008F739927848FA689B7892C93A089B18957
:100340008C91837080648C93938D848D981306C0F8
:100350000288F389E02D80818F7D80830895EF925C
:10036000FF920F931F93CF93DF93EC0181E0888F6F
:100370009B8D8C8D98131AC0E889F989808185FF3F
:1003800015C09FB7F894EE89FF896083E889F989E1
:1003900080818370806480839FBF81E090E0DF91E3
:1003A000CF911F910F91FF90EF900895F62E0B8D36
:1003B00010E00F5F1F4F0F731127E02E8C8D8E11F1
:1003C0000CC00FB607FCFACFE889F989808185FF58
:1003D000F5CFCE010E948D01F1CFEB8DEC0FFD2FFB
:1003E000F11DE35AFF4FF0829FB7F8940B8FEA8913
:1003F000FB8980818062CFCFCF93DF93EC01888D22
:100400008823B9F0AA89BB89E889F9898C9185FD8F
:1004100003C0808186FD0DC00FB607FCF7CF8C911D
:1004200085FFF2CF808185FFEDCFCE010E948D0147
:10043000E9CFDF91CF910895089580911A019091AD
:100440001B01019690931B0180931A0120911A01C0
:1004500030911B0180910401909105012817390703
:10046000B4F0209118013091190181E090E0821BD5
:10047000930B90931901809318018091180190912A
:1004800019010E94870010921B0110921A01089511
:100490001F920F920FB60F9211242F933F938F93B9
:1004A0009F93AF93BF938091210190912201A091DE
:1004B0002301B09124013091200123E0230F2D3737
:1004C00058F50196A11DB11D2093200180932101B3
:1004D00090932201A0932301B093240180911C01E9
:1004E00090911D01A0911E01B0911F010196A11DC7
:1004F000B11D80931C0190931D01A0931E01B09328
:100500001F01BF91AF919F918F913F912F910F90BC
:100510000FBE0F901F90189526E8230F0296A11D7D
:10052000B11DD2CF1F920F920FB60F9211242F93AD
:100530003F934F935F936F937F938F939F93AF936B
:10054000BF93EF93FF9385E291E00E948D01FF91AD
:10055000EF91BF91AF919F918F917F916F915F913B
:100560004F913F912F910F900FBE0F901F901895B4
:100570001F920F920FB60F9211242F938F939F9378
:10058000EF93FF93E0913501F09136018081E09186
:100590003B01F0913C0182FD1BC0908180913E01A6
:1005A0008F5F8F7320913F01821741F0E0913E01F0
:1005B000F0E0EB5DFE4F958F80933E01FF91EF9150
:1005C0009F918F912F910F900FBE0F901F901895B4
:1005D0008081F4CF1F920F920FB60F9211242F93A8
:1005E0003F934F935F936F937F938F939F93AF93BB
:1005F000BF93EF93FF93E0910201F09103010995FE
:10060000FF91EF91BF91AF919F918F917F916F91EA
:100610005F914F913F912F910F900FBE0F901F90C0
:1006200018951F920F920FB60F9211242F933F939C
:100630004F935F936F937F938F939F93AF93BF93EA
:10064000EF93FF93E0910001F09101010995FF9173
:10065000EF91BF91AF919F918F917F916F915F913A
:100660004F913F912F910F900FBE0F901F901895B3
:10067000789484B5826084BD84B5816084BD85B57D
:10068000826085BD85B5816085BD80916E00816089
:1006900080936E001092810080918100826080932F
:1006A0008100809181008160809381008091800031
:1006B0008160809380008091B10084608093B1005C
:1006C0008091B00081608093B00080917A00846056
:1006D00080937A0080917A00826080937A00809182
:1006E0007A00816080937A0080917A00806880939C
:1006F0007A001092C100E2E9F0E02491EEE7F0E028
:1007000084918823C1F090E0880F991FFC01E8597B
:10071000FF4FC591D491FC01EE58FF4FA591B491C4
:100720009FB7F8948881E22FE0958E2388838C917F
:10073000E823EC939FBFE8E9F0E02491E4E8F0E0DF
:100740008491882399F090E0880F991FFC01E85963
:10075000FF4FA591B491FC01EE58FF4F8591949104
:100760008FB7F894EC91E22BEC938FBF80E00E945E
:100770008700E09A8DE192E090930101809300015F
:10078000809169008C7F816080936900E89AE09194
:100790003501F091360182E08083E0913101F091E2
:1007A00032011082E0913301F09134018FEC8083AB
:1007B00010923D01E0913901F0913A0186E0808389
:1007C000E0913701F0913801808180618083E09170
:1007D0003701F0913801808188608083E091370192
:1007E000F0913801808180688083E0913701F09139
:1007F000380180818F7D808380E29EE4A0E0B0E0BC
:100800008093290190932A01A0932B01B0932C018E
:10081000C0E0D0E00E942D01FC01C12CD12C76015A
:1008200097FD40C08D32910521F0C0970A9708F0DE
:1008300048C0C12CD12C760110E0E130F105D9F08F
:10084000ED32F10509F442C0CF01C0970A9798F440
:10085000AAE0B0E0A70196010E9495046F01FF0F86
:10086000EE08FF08C60ED71EE81EF91E80E3C81A60
:10087000D108E108F10885E291E00E940B010E9495
:100880002D01FC01C0970A97C0F2E130F105A9F2F1
:10089000112341F0F094E094D094C094C11CD11C79
:1008A000E11CF11CD0920501C0920401209709F4CB
:1008B000B1CF0E947901882309F4ACCF0E940000D7
:1008C000A9CF85E291E00E940B01A4CF11E0D3CF24
:1008D000E5E2F1E01382128288EE93E0A0E0B0E05E
:1008E00084839583A683B7838AE091E09183808394
:1008F00085EC90E09587848784EC90E097878687E5
:1009000080EC90E0918B808B81EC90E0938B828BDC
:1009100082EC90E0958B848B86EC90E0978B868BB5
:10092000118E128E138E148E08950E94A004A59F1E
:10093000900DB49F900DA49F800D911D11240895DA
:10094000A29FB001B39FC001A39F700D811D112410
:10095000911DB29F700D811D1124911D0895EE0F00
:10096000FF1F0590F491E02D0994F894FFCF1C022D
:100970001C02050000000000AF01CF00FC00FC01DC
:060980006D010B011F01D7
:107E0000112484B714BE81FFF0D085E080938100F7
:107E100082E08093C00088E18093C10086E0809377
:107E2000C20080E18093C4008EE0C9D0259A86E02C
:107E300020E33CEF91E0309385002093840096BBD3
:107E4000B09BFECF1D9AA8958150A9F7CC24DD24C4
:107E500088248394B5E0AB2EA1E19A2EF3E0BF2EE7
:107E6000A2D0813461F49FD0082FAFD0023811F036
:107E7000013811F484E001C083E08DD089C08234E0
:107E800011F484E103C0853419F485E0A6D080C0E4
:107E9000853579F488D0E82EFF2485D0082F10E0AE
:107EA000102F00270E291F29000F111F8ED06801E7
:107EB0006FC0863521F484E090D080E0DECF843638
:107EC00009F040C070D06FD0082F6DD080E0C81688
:107ED00080E7D80618F4F601B7BEE895C0E0D1E017
:107EE00062D089930C17E1F7F0E0CF16F0E7DF06D8
:107EF00018F0F601B7BEE89568D007B600FCFDCFD4
:107F0000A601A0E0B1E02C9130E011968C91119780
:107F100090E0982F8827822B932B1296FA010C0160
:107F200087BEE89511244E5F5F4FF1E0A038BF0790
:107F300051F7F601A7BEE89507B600FCFDCF97BE46
:107F4000E89526C08437B1F42ED02DD0F82E2BD052
:107F50003CD0F601EF2C8F010F5F1F4F84911BD097
:107F6000EA94F801C1F70894C11CD11CFA94CF0C13
:107F7000D11C0EC0853739F428D08EE10CD085E9AC
:107F80000AD08FE07ACF813511F488E018D01DD067
:107F900080E101D065CF982F8091C00085FFFCCF94
:107FA0009093C60008958091C00087FFFCCF809118
:107FB000C00084FD01C0A8958091C6000895E0E648
:107FC000F0E098E1908380830895EDDF803219F02E
:107FD00088E0F5DFFFCF84E1DECF1F93182FE3DFCA
:107FE0001150E9F7F2DF1F91089580E0E8DFEE27F6
:047FF000FF270994CA
:027FFE00040479
:00000001FF
