:020000040000FA
:100000000C9459000C9481000C9481000C94810094
:100010000C9481000C9481000C9481000C9481005C
:100020000C9481000C9481000C9481000C9481004C
:100030000C9481000C9481000C9481000C9481003C
:100040000C9405050C9481000C94D3040C94AD041D
:100050000C9481000C9481000C9481000C9481001C
:100060000C944F050C94810000000000250028002E
:100070002B00040404040404040402020202020229
:10008000030303030303010204081020408001025C
:1000900004081020010204081020000000080002DB
:1000A0000100000304070000000000000000B70684
:1000B000500911241FBECFEFD8E0DEBFCDBF22E034
:1000C000A8E4B1E001C01D92A33EB207E1F711E040
:1000D000A0E0B1E0E0E8F7E102C005900D92A8349D
:1000E000B107D9F710E0C8E5D0E004C02197FE01C0
:1000F0000E94BB09C735D107C9F70E9413070C94AA
:10010000B30B0C94000091E09093EE0180931002E9
:100110001092EF0110921102089508950895AF9280
:10012000BF92CF92DF92EF92FF920F931F93CF93E4
:10013000DF936C017B018B01040F151FEB015E0146
:10014000AE18BF08C017D10759F06991D601ED91DB
:10015000FC910190F081E02DC6010995892B79F77A
:10016000C501DF91CF911F910F91FF90EF90DF902C
:10017000CF90BF90AF900895FC01538D448D252FF3
:1001800030E0842F90E0821B930B541710F0CF9631
:10019000089501970895FC01918D828D981761F063
:1001A000A28DAE0FBF2FB11D5D968C91928D9F5F7A
:1001B0009F73928F90E008958FEF9FEF0895FC0159
:1001C000918D828D981731F0828DE80FF11D858D0C
:1001D00090E008958FEF9FEF0895FC01918D228D9F
:1001E000892F90E0805C9F4F821B91098F73992724
:1001F000089582E192E00E94ED0021E0892B09F44C
:1002000020E0822F089580E090E0892B29F00E9461
:10021000F90081110C9400000895FC01A48DA80F31
:10022000B92FB11DA35ABF4F2C91848D90E0019638
:100230008F739927848FA689B7892C93A089B18958
:100240008C91837080648C93938D848D981306C0F9
:100250000288F389E02D80818F7D80830895EF925D
:10026000FF920F931F93CF93DF93EC0181E0888F70
:100270009B8D8C8D98131AC0E889F989808185FF40
:1002800015C09FB7F894EE89FF896083E889F989E2
:1002900080818370806480839FBF81E090E0DF91E4
:1002A000CF911F910F91FF90EF900895F62E0B8D37
:1002B00010E00F5F1F4F0F731127E02E8C8D8E11F2
:1002C0000CC00FB607FCFACFE889F989808185FF59
:1002D000F5CFCE010E940D01F1CFEB8DEC0FFD2F7C
:1002E000F11DE35AFF4FF0829FB7F8940B8FEA8914
:1002F000FB8980818062CFCFCF93DF93EC01888D23
:100300008823B9F0AA89BB89E889F9898C9185FD90
:1003100003C0808186FD0DC00FB607FCF7CF8C911E
:1003200085FFF2CF808185FFEDCFCE010E940D01C8
:10033000E9CFDF91CF91089590E0FC01E656FF4FA1
:100340002491FC01EA57FF4F3491FC01EE58FF4F16
:10035000E491EE23C9F0222339F0233001F1A8F40F
:10036000213019F1223029F1F0E0EE0FFF1FE8599A
:10037000FF4FA591B4918FB7F894EC91611126C00D
:1003800030953E233C938FBF08952730A9F0283045
:10039000C9F0243049F7809180008F7D03C080919F
:1003A00080008F7780938000DFCF84B58F7784BD06
:1003B000DBCF84B58F7DFBCF8091B0008F778093AA
:1003C000B000D2CF8091B0008F7DF9CF3E2BDACF35
:1003D0003FB7F8948091910190919201A09193017F
:1003E000B091940126B5A89B05C02F3F19F0019646
:1003F000A11DB11D3FBFBA2FA92F982F8827BC017F
:10040000CD01620F711D811D911D42E0660F771FA6
:10041000881F991F4A95D1F708958F929F92AF92A6
:10042000BF92CF92DF92EF92FF924B015C010E944C
:10043000E8016B017C010E94E8016C197D098E09BD
:100440009F09683E734081059105A8F321E0821A57
:100450009108A108B10888EEC80E83E0D81EE11CFF
:10046000F11C81149104A104B10429F7FF90EF90CD
:10047000DF90CF90BF90AF909F908F900895209184
:100480006901260F3327331F21323105ECF4209107
:10049000E801FC0190E080E0243069F082E00895FA
:1004A000A09169012191AC01475B5E4FA40FB52F6C
:1004B000B11D2C930196861798F380916901680FFE
:1004C0006093690180E0089581E008951092E80149
:1004D00081E08093E7011092C20161E082E10E9415
:1004E0009C0161E083E10E949C01E9EBF0E08081E6
:1004F0008E7F808380818D7F808388E48093B800A5
:1005000085E48093BC000895CF93DF9391E09093AE
:1005100048018823B9F0C091B800D091BA00809109
:10052000BC008A7B8093BC0060E082E10E949C0159
:1005300060E083E10E949C010E946602D093BA00B1
:10054000C093B800DF91CF910895CF92DF92EF92E0
:10055000FF920F931F93CF93DF93D091110281E00D
:10056000D13208F09CC0C09110020E94E8016B01DA
:100570007C018091E80181116CC082E08093E801E8
:1005800081E08093E7018FEF8093E6011092E5010F
:10059000D093E401A0EFB1E0E4ECF1E080E0D81307
:1005A0008DC01092C3018091C301CC0FC82BC093A2
:1005B000C3018091C201813009F084C01092C20150
:1005C0000E94E8016B017C018091C3018093BB0014
:1005D0008091EA019091EB01A091EC01B091ED01C5
:1005E000892B8A2B8B2BA1F00E94E8010091EA0154
:1005F0001091EB012091EC013091ED016C197D0916
:100600008E099F09061717072807390708F442C003
:100610008091BC0083FDD8CF85EC8093BC000E9404
:10062000E8016B017C018091E801823009F44CC043
:100630008091E6018F3F09F469C08091E601803224
:1006400009F466C08091E601803309F463C084E058
:1006500026C08091EA019091EB01A091EC01B0914C
:10066000ED01892B8A2B8B2B09F483CF0E94E801A3
:100670000091EA011091EB012091EC013091ED0124
:100680006C197D098E099F09061717072807390776
:1006900008F06FCF8091E9010E94840285E01092FA
:1006A000EF01109211021092EE01DF91CF911F9194
:1006B0000F91FF90EF90DF90CF9008959D919193CF
:1006C0008F5F6DCF85EEA9CF8091EA019091EB010C
:1006D000A091EC01B091ED01892B8A2B8B2B09F4B1
:1006E000A2CF0E94E8010091EA011091EB01209154
:1006F000EC013091ED016C197D098E099F090617F7
:1007000017072807390708F08ECFC4CF80E0C7CF7E
:1007100082E0C5CF83E0C3CF0895E0919A01809134
:100720009901E81730F4F0E0E556FE4F808190E043
:1007300008958FEF9FEF089590919A01809199010C
:100740002FEF3FEF981748F4E92FF0E0E556FE4F02
:10075000208130E09F5F90939A01C90108958091B4
:10076000990190919A01891B990B0895CF92DF927C
:10077000EF92FF920F931F93CF93DF937C01CB01F6
:100780008A012091EE01222389F0EB016B01C40E56
:10079000D51ECC15DD0569F06991D701ED91FC916D
:1007A0000190F081E02DC7010995F3CF642F0E94DD
:1007B0003F02C801DF91CF911F910F91FF90EF9001
:1007C000DF90CF900895CF93DF931F92CDB7DEB720
:1007D00069832091EE012223F9F020911102203249
:1007E00058F021E030E0FC013383228390E080E088
:1007F0000F90DF91CF9108958091EF01E82FF0E005
:10080000E051FE4F998190838F5F8093EF01809339
:10081000110281E090E0ECCF61E0CE0101960E94F0
:100820003F02F7CF682F8FEA92E00C94E30390E049
:1008300080E00895FC0101900020E9F73197AF01B5
:10084000481B590BBC0182E192E00C948F00CF92BF
:10085000DF92EF92FF920F931F93CF93DF93CDB769
:10086000DEB7A1970FB6F894DEBF0FBECDBF6B0108
:10087000682F70E090E080E019A28E010F5D1F4F9D
:100880000D2C000CEE08FF08A70196010E949909A3
:10089000E62FCA01B901EA301CF5E05DD801EE93FC
:1008A0008D01232B242B252B79F71097D9F0CD011F
:1008B0000E941A048C018AE291E00E941A04800FBF
:1008C000911FA1960FB6F894DEBF0FBECDBFDF918A
:1008D000CF911F910F91FF90EF90DF90CF900895EF
:1008E000E95CDCCF10E000E0E6CF85ED8093BC0052
:1008F0008091EA019091EB01A091EC01B091ED01A2
:100900000796A11DB11D23E0B695A79597958795EC
:100910002A95D1F72091BC0024FD03C01092E80174
:1009200008954091EA015091EB016091EC017091C2
:10093000ED01452B462B472B69F30097A105B10527
:1009400041F025E32A95F1F700000197A109B109CB
:10095000E1CF8091E9010C9484021F920F920FB6AF
:100960000F9211242F933F934F935F936F937F9335
:100970008F939F93AF93BF93EF93FF9382E192E0A6
:100980000E940D01FF91EF91BF91AF919F918F91C7
:100990007F916F915F914F913F912F910F900FBE7B
:1009A0000F901F9018951F920F920FB60F9211245F
:1009B0002F938F939F93EF93FF93E0912202F091F7
:1009C00023028081E0912802F091290282FD1BC060
:1009D000908180912B028F5F8F7320912C02821760
:1009E00041F0E0912B02F0E0EE5EFD4F958F809399
:1009F0002B02FF91EF919F918F912F910F900FBE3E
:100A00000F901F9018958081F4CF1F920F920FB610
:100A10000F9211242F933F938F939F93AF93BF9384
:100A200080918D0190918E01A0918F01B0919001E4
:100A300030918C0123E0230F2D3758F50196A11D2D
:100A4000B11D20938C0180938D0190938E01A09312
:100A50008F01B09390018091910190919201A091AA
:100A60009301B09194010196A11DB11D8093910154
:100A700090939201A0939301B0939401BF91AF9191
:100A80009F918F913F912F910F900FBE0F901F90CC
:100A9000189526E8230F0296A11DB11DD2CF1F92F3
:100AA0000F920FB60F9211242F933F934F935F93A2
:100AB0006F937F938F939F93AF93BF93EF93FF9326
:100AC0008091B900887F803609F44AC0F0F58832F9
:100AD00009F4A7C018F5803109F49BC0B8F4882345
:100AE00009F4F9C0883009F494C0FF91EF91BF91E7
:100AF000AF919F918F917F916F915F914F913F91B6
:100B00002F910F900FBE0F901F901895883109F408
:100B100088C0803251F78093E60114C0803409F414
:100B20009DC040F48033B9F38833F9F68093E60131
:100B300085ECB0C0803509F485C0883509F496C0CD
:100B4000883499F60E947504D0CF883909F48CC096
:100B500038F5883729F050F4883611F0803729F6B7
:100B600083E08093E80110928B0157C0883809F424
:100B70007BC0803919F0803809F0B7CF80918B01A4
:100B8000803208F071C0E0918B0181E08E0F80937C
:100B90008B018091BB00F0E0E559FE4F80833DC0A2
:100BA000803B39F0E0F4803A09F479C0883A09F0E2
:100BB0009CCF84E08093E80110926A011092690151
:100BC000E0919701F0919801099580916901811157
:100BD0000FC081E0809369011092490109C0803CF7
:100BE00009F4A6CF883C09F4A3CF883B09F07DCF58
:100BF000E0916A0181E08E0F80936A01F0E0E75B8B
:100C0000FE4F80818093BB0090916A0180916901C1
:100C100029C08091C3018093BB0085EC8093BC0008
:100C200064CF9091E5018091E401981758F5E09127
:100C3000E50181E08E0F8093E501F0E0EC53FE4F7B
:100C40008081E9CFE091E50181E08E0F8093E5019D
:100C50008091BB00F0E0EC53FE4F80839091E50162
:100C60008091E4019817C8F285E8D8CFE091E501BA
:100C700081E08E0F8093E5018091BB00F0E0EC53A2
:100C8000FE4F80838091E70181115CCF81E08093EA
:100C9000C20184EA8093BC001092E80126CF85EC63
:100CA0008093BC001092E80180918B01803230F477
:100CB000E0918B01F0E0E559FE4F108260918B01CD
:100CC00070E0E0919501F09196018BE691E0099535
:100CD00010928B010ACF1092E60134CFEF92FF926F
:100CE0000F931F93CF93DF93EC017B01198218823E
:100CF0001B821A821D821C82FB0101900020E9F7F1
:100D000031978F01061B170BB8016F5F7F4F90E083
:100D100080E00E94E60A0097B9F0998388831B83DC
:100D20000A832C813D81232B11F4FC0110821D8349
:100D30000C83B70188819981DF91CF911F910F9129
:100D4000FF90EF900C94AC0B88819981009711F083
:100D50000E945D0A198218821D821C821B821A82DF
:100D6000DF91CF911F910F91FF90EF900895E2E1F5
:100D7000F2E01382128288EE93E0A0E0B0E0848378
:100D80009583A683B7832AE031E03183208325EC65
:100D900030E03587248724EC30E03787268720EC45
:100DA00030E0318B208B21EC30E0338B228B22EC36
:100DB00030E0358B248B26EC30E0378B268B118E80
:100DC000128E138E148EEFEAF2E013821282848365
:100DD0009583A683B7838CE191E0918380836DE254
:100DE00071E08BEB92E00E946E0664E371E081ECAF
:100DF00092E00E946E066DE371E087EC92E00E9443
:100E00006E066CE271E08DEC92E00E946E066CE280
:100E100071E083ED92E00E946E066CE271E089ED74
:100E200092E00C946E06789484B5826084BD84B59B
:100E3000816084BD85B5826085BD85B5816085BDD5
:100E400080916E00816080936E001092810080918D
:100E50008100826080938100809181008160809315
:100E60008100809180008160809380008091B1003A
:100E700084608093B1008091B00081608093B00065
:100E800080917A00846080937A0080917A008260F9
:100E900080937A0080917A00816080937A008091BB
:100EA0007A00806880937A001092C10010929A01B3
:100EB000109299011092EF01109211020E946602A5
:100EC0008DE890E090939801809397018EE890E0F0
:100ED0009093960180939501E0912202F091230274
:100EE00082E08083E0911E02F0911F021082E09167
:100EF0002002F09121028FEC808310922A02E0916F
:100F00002602F091270286E08083E0912402F0918E
:100F10002502808180618083E0912402F091250286
:100F2000808188608083E0912402F0912502808195
:100F300080688083E0912402F091250280818F7D7A
:100F4000808380E50E94830090E080E00E9412048C
:100F500080E890E00E9412040E94A50280E50E94B1
:100F6000830082E090E00E94120490E080E00E9402
:100F700012040E94A50280E50E94830083E090E0B5
:100F80000E94120480E490E00E9412040E94A502D4
:100F900080E50E94830084E090E00E94120488E0D3
:100FA00090E00E9412040E94A50280E50E94830046
:100FB00085E090E00E94120480E690E00E94120416
:100FC0000E94A50280E50E94830086E090E00E94D6
:100FD000120482E590E00E9412040E94A50280E5BE
:100FE0000E94830090E080E00E94120490E080E084
:100FF0000E9412040E94A50285EEE82E95ECD92EDF
:1010000000E010E0FF24F394CC24CA9424E0B22E34
:1010100080E50E94830082E090E00E9412040E941A
:10102000A5026AE070E080E090E00E940D020E945C
:10103000E8012B013C018091E801811161C0F0922F
:10104000E801F092E701C092E6011092E501B0924A
:10105000E401F092C3018091C301806A8093C301CF
:101060008091C201813009F09AC01092C2010E94A1
:10107000E8012B013C018091C3018093BB0080916A
:10108000EA019091EB01A091EC01B091ED01892B67
:101090008A2B8B2BA1F00E94E8012091EA0130916C
:1010A000EB014091EC015091ED016419750986093D
:1010B0009709261737074807590708F442C0809157
:1010C000BC0083FDD8CFD092BC000E94E8012B0168
:1010D0003C018091E801813009F464C08091E50110
:1010E000853008F081C08091E501A4ECB1E0EBE926
:1010F000F1E090E0981751F12D9121939F5FFACF85
:101100008091EA019091EB01A091EC01B091ED0189
:10111000892B8A2B8B2B09F48ECF0E94E80120911A
:10112000EA013091EB014091EC015091ED0164191D
:10113000750986099709261737074807590708F0E0
:101140007ACF8091E9010E94840280E010929A0196
:10115000809399016AE070E080E090E00E940D02C7
:101160001092C1011092C001C091C001D091C10183
:10117000C530D105DCF58FEA92E00E949C03FE01A8
:10118000E554FE4F80836AE070E080E090E00E94CA
:101190000D022196D093C101C093C001E5CFE0922A
:1011A000BC0093CF8091EA019091EB01A091EC01FA
:1011B000B091ED01892B8A2B8B2B09F48ACF0E94E9
:1011C000E8012091EA013091EB014091EC0150914E
:1011D000ED0164197509860997092617370748072D
:1011E000590708F076CFADCF85E07FCF1092C101CF
:1011F0001092C0018091C0019091C101853091058C
:10120000C4F485549E4F62E070E0FC0180810E942E
:1012100027046AE070E080E090E00E940D02809177
:10122000C0019091C10101969093C1018093C001CA
:10123000E1CF8AE291E00E941A0460E170E08091BF
:10124000BB010E94270460E170E08091BC010E9414
:10125000270460E170E08091BD010E942704809125
:10126000BE0160E170E08F730E94270483E491E087
:101270000E941A048AE291E00E941A0460E177E277
:1012800080E090E00E940D020115110509F4C0CE26
:101290000E94F900882309F4BBCE0E940000B8CE5A
:1012A000CF93DF93CFEDD2E0269788819981009785
:1012B00011F00E945D0A82E0CB3BD807A9F7DF91CD
:1012C000CF9108952F923F924F925F926F927F92AB
:1012D0008F929F92AF92BF92CF92DF92EF92FF9246
:1012E0000F931F93CF93DF93CDB7DEB7CA1BDB0BF2
:1012F0000FB6F894DEBF0FBECDBF09942A88398897
:1013000048885F846E847D848C849B84AA84B9849D
:10131000C884DF80EE80FD800C811B81AA81B981A9
:10132000CE0FD11D0FB6F894DEBF0FBECDBFED01BD
:101330000895A1E21A2EAA1BBB1BFD010DC0AA1F16
:10134000BB1FEE1FFF1FA217B307E407F50720F02E
:10135000A21BB30BE40BF50B661F771F881F991FA9
:101360001A9469F760957095809590959B01AC01F2
:10137000BD01CF010895EE0FFF1F0590F491E02D00
:1013800009940F931F93CF93DF938230910510F44C
:1013900082E090E0E091E102F091E20230E020E0B2
:1013A000B0E0A0E0309799F42115310509F44AC066
:1013B000281B390B24303105D8F58A819B816115B2
:1013C000710589F1FB0193838283FE0111C0408185
:1013D00051810281138148175907E0F048175907D6
:1013E00099F4109761F012960C93129713961C9330
:1013F0003296CF01DF91CF911F910F910895009305
:10140000E1021093E202F4CF2115310551F04217A9
:10141000530738F0A901DB019A01BD01DF01F80192
:10142000C1CFEF01F9CF9093E2028093E102CDCFDB
:10143000FE01E20FF31F819391932250310939830A
:101440002883D7CF2091DF023091E002232B41F493
:1014500020910201309103013093E0022093DF02DA
:1014600020910001309101012115310541F42DB782
:101470003EB74091040150910501241B350BE091CA
:10148000DF02F091E002E217F307A0F42E1B3F0BFE
:101490002817390778F0AC014E5F5F4F24173507E6
:1014A00048F04E0F5F1F5093E0024093DF0281939C
:1014B00091939FCFF0E0E0E09CCFCF93DF93009734
:1014C000E9F0FC01329713821282A091E102B091FF
:1014D000E202ED0130E020E01097A1F4208131819B
:1014E000820F931F2091DF023091E0022817390705
:1014F00009F061C0F093E002E093DF02DF91CF9149
:101500000895EA01CE17DF07E8F54A815B819E0165
:1015100041155105B1F7E901FB83EA8349915991DE
:10152000C40FD51FEC17FD0761F4808191810296ED
:10153000840F951FE90199838883828193819B831E
:101540008A83F0E0E0E012968D919C9113970097CA
:10155000B9F52D913C911197CD010296820F931F01
:101560002091DF023091E0022817390739F63097D1
:1015700051F51092E2021092E102B093E002A093C2
:10158000DF02BCCFD383C28340815181840F951F7A
:10159000C817D90761F44E5F5F4F88819981480F62
:1015A000591F518340838A819B81938382832115B4
:1015B000310509F0B0CFF093E202E093E1029ECF53
:1015C000FD01DC01C0CF13821282D7CFB0E0A0E0D2
:1015D000ECEEFAE00C9464098C01009751F4CB0115
:1015E0000E94C1098C01C801CDB7DEB7E0E10C94BF
:1015F0008009FC01E60FF71F9C0122503109E21718
:10160000F30708F49DC0D901CD91DC911197C6175D
:10161000D70798F0C530D10530F3CE01049786176F
:10162000970708F3C61BD70B2297C193D1936D93ED
:101630007C93CF010E945D0AD6CF5B01AC1ABD0A34
:101640004C018C0E9D1EA091E102B091E202512C42
:10165000412CF12CE12C109731F58091DF02909113
:10166000E0028815990509F05CC04616570608F097
:1016700058C08091000190910101009741F48DB70D
:101680009EB74091040150910501841B950BE8170A
:10169000F90708F055C0F093E002E093DF02F9018A
:1016A00071836083A0CF8D919C91119712966C905D
:1016B000129713967C901397A815B90559F56C01EC
:1016C00042E0C40ED11CCA14DB0420F1AC014A195B
:1016D0005B09DA011296159780F06282738251835A
:1016E0004083D9016D937C93E114F10471F0D7012B
:1016F0001396FC93EE93129776CF22968C0F9D1F34
:10170000F90191838083F301EFCFF093E202E0933C
:10171000E10269CF4816590608F42C017D01D30176
:101720009ACFCB010E94C1097C01009749F0AE011C
:10173000B8010E94A30BC8010E945D0A870153CF24
:1017400010E000E050CFFB01DC0102C001900D92DF
:1017500041505040D8F70895FB01DC0101900D92F3
:101760000020E1F7089510E0C8E5D0E004C0FE01D4
:101770000E94BB092196C935D107C9F7F894FFCF5C
:101780000000E3028000000000002F018F00BC0079
:101790007C01ED00CB00DF0000000000E303B60396
:1017A00017048C03AF039C038D030D0A0073616D56
:1017B0006564690064696D616E636865006C756E6F
:0817C00064690032303231008F
:107E0000112484B714BE81FFF0D085E080938100F7
:107E100082E08093C00088E18093C10086E0809377
:107E2000C20080E18093C4008EE0C9D0259A86E02C
:107E300020E33CEF91E0309385002093840096BBD3
:107E4000B09BFECF1D9AA8958150A9F7CC24DD24C4
:107E500088248394B5E0AB2EA1E19A2EF3E0BF2EE7
:107E6000A2D0813461F49FD0082FAFD0023811F036
:107E7000013811F484E001C083E08DD089C08234E0
:107E800011F484E103C0853419F485E0A6D080C0E4
:107E9000853579F488D0E82EFF2485D0082F10E0AE
:107EA000102F00270E291F29000F111F8ED06801E7
:107EB0006FC0863521F484E090D080E0DECF843638
:107EC00009F040C070D06FD0082F6DD080E0C81688
:107ED00080E7D80618F4F601B7BEE895C0E0D1E017
:107EE00062D089930C17E1F7F0E0CF16F0E7DF06D8
:107EF00018F0F601B7BEE89568D007B600FCFDCFD4
:107F0000A601A0E0B1E02C9130E011968C91119780
:107F100090E0982F8827822B932B1296FA010C0160
:107F200087BEE89511244E5F5F4FF1E0A038BF0790
:107F300051F7F601A7BEE89507B600FCFDCF97BE46
:107F4000E89526C08437B1F42ED02DD0F82E2BD052
:107F50003CD0F601EF2C8F010F5F1F4F84911BD097
:107F6000EA94F801C1F70894C11CD11CFA94CF0C13
:107F7000D11C0EC0853739F428D08EE10CD085E9AC
:107F80000AD08FE07ACF813511F488E018D01DD067
:107F900080E101D065CF982F8091C00085FFFCCF94
:107FA0009093C60008958091C00087FFFCCF809118
:107FB000C00084FD01C0A8958091C6000895E0E648
:107FC000F0E098E1908380830895EDDF803219F02E
:107FD00088E0F5DFFFCF84E1DECF1F93182FE3DFCA
:107FE0001150E9F7F2DF1F91089580E0E8DFEE27F6
:047FF000FF270994CA
:027FFE00040479
:00000001FF
