:020000040000FA
:100000000C945D000C9485000C9485000C94850084
:100010000C9485000C9485000C9485000C9485004C
:100020000C9485000C9485000C9485000C9485003C
:100030000C9485000C9485000C9485000C9485002C
:100040000C9428030C9485000C94F6020C94D002B6
:100050000C9485000C9485000C9485000C9485000C
:100060000C9485000C9485000000000024002700FB
:100070002A0000000000250028002B0004040404CE
:100080000404040402020202020203030303030342
:10009000010204081020408001020408102001021F
:1000A00004081020000000080002010000030407FB
:1000B00000000000000000006F0411241FBECFEFFD
:1000C000D8E0DEBFCDBF21E0A2E1B1E001C01D92CA
:1000D000A93BB207E1F711E0A0E0B1E0ECE7F9E0FD
:1000E00002C005900D92A231B107D9F710E0CDE51D
:1000F000D0E004C02197FE010E94B604CC35D107A0
:10010000C9F70E9472030C94BC040C940000E6EA48
:10011000F0E02491E2E9F0E09491EEE7F0E0E49180
:10012000EE23C9F0222339F0233001F1A8F4213065
:1001300019F1223029F1F0E0EE0FFF1FEE58FF4FCA
:10014000A591B4912FB7F894EC91811126C09095A8
:100150009E239C932FBF08952730A9F02830C9F023
:10016000243049F7209180002F7D03C0209180002A
:100170002F7720938000DFCF24B52F7724BDDBCFEE
:1001800024B52F7DFBCF2091B0002F772093B000B6
:10019000D2CF2091B0002F7DF9CF9E2BDACFAF9236
:1001A000BF92CF92DF92EF92FF920F931F93CF9364
:1001B000DF936C017B018B01040F151FEB015E01C6
:1001C000AE18BF08C017D10759F06991D601ED915B
:1001D000FC910190F081E02DC6010995892B79F7FA
:1001E000C501DF91CF911F910F91FF90EF90DF90AC
:1001F000CF90BF90AF900895FC01538D448D252F73
:1002000030E0842F90E0821B930B541710F0CF96B0
:10021000089501970895FC01918D828D981761F0E2
:10022000A28DAE0FBF2FB11D5D968C91928D9F5FF9
:100230009F73928F90E008958FEF9FEF0895FC01D8
:10024000918D828D981731F0828DE80FF11D858D8B
:1002500090E008958FEF9FEF08952FB7F894809165
:10026000180190911901A0911A01B0911B012FBFA3
:100270008093240190932501A0932601B093270138
:100280008CE191E00E941F0197FF26C02FB7F894E0
:100290008091180190911901A0911A01B0911B0150
:1002A0002FBF40912401509125016091260170914A
:1002B0002701841B950BA60BB70B40912001509191
:1002C0002101609122017091230184179507A607EF
:1002D000B707B0F28FEF9FEF0895CF92DF92EF92C2
:1002E000FF92CF930E942D01FC0197FD4EC08D32ED
:1002F000910521F0C0970A9708F040C0C12CD12C7D
:100300007601C0E0E130F105D1F0ED32F105D9F12F
:10031000CF01C0970A9798F4AAE0B0E0A701960130
:100320000E949C046F01FF0FEE08FF08C60ED71E47
:10033000E81EF91E80E3C81AD108E108F1088CE133
:1003400091E00E940B010E942D01FC01C0970A97C9
:10035000C8F2E130F105B1F2CC2341F0F094E09421
:10036000D094C094C11CD11CE11CF11CC701B60182
:10037000CF91FF90EF90DF90CF9008958CE191E0C6
:100380000E940B01AFCFC1E0DACFC12CD12C760196
:10039000EDCFFC01918D228D892F90E0805C9F4FE5
:1003A000821B91098F73992708958CE191E00E9437
:1003B000C90121E0892B09F420E0822F089580E013
:1003C00090E0892B29F00E94D50181110C94000046
:1003D0000895FC01A48DA80FB92FB11DA35ABF4FDA
:1003E0002C91848D90E001968F739927848FA68934
:1003F000B7892C93A089B1898C91837080648C9388
:10040000938D848D981306C00288F389E02D808136
:100410008F7D80830895EF92FF920F931F93CF9368
:10042000DF93EC0181E0888F9B8D8C8D98131AC02F
:10043000E889F989808185FF15C09FB7F894EE8916
:10044000FF896083E889F989808183708064808373
:100450009FBF81E090E0DF91CF911F910F91FF90BE
:10046000EF900895F62E0B8D10E00F5F1F4F0F7366
:100470001127E02E8C8D8E110CC00FB607FCFACF21
:10048000E889F989808185FFF5CFCE010E94E901D5
:10049000F1CFEB8DEC0FFD2FF11DE35AFF4FF082F2
:1004A0009FB7F8940B8FEA89FB8980818062CFCF58
:1004B000CF93DF93EC01888D8823B9F0AA89BB899B
:1004C000E889F9898C9185FD03C0808186FD0DC086
:1004D0000FB607FCF7CF8C9185FFF2CF808185FFA7
:1004E000EDCFCE010E94E901E9CFDF91CF910895D0
:1004F0003FB7F8948091130190911401A0911501D8
:10050000B091160126B5A89B05C02F3F19F00196A2
:10051000A11DB11D3FBFBA2FA92F982F8827BC015D
:10052000CD01620F711D811D911D42E0660F771F85
:10053000881F991F4A95D1F708958F929F92AF9285
:10054000BF92CF92DF92EF92FF926B017C010E94EB
:1005500078024B015C01C114D104E104F104B9F04B
:100560000E947802681979098A099B09683E7340DC
:100570008105910580F321E0C21AD108E108F10854
:1005800088EE880E83E0981EA11CB11CE4CFFF907A
:10059000EF90DF90CF90BF90AF909F908F90089595
:1005A0001F920F920FB60F9211242F933F934F93E8
:1005B0005F936F937F938F939F93AF93BF93EF93CB
:1005C000FF938CE191E00E94E901FF91EF91BF91CF
:1005D000AF919F918F917F916F915F914F913F91DB
:1005E0002F910F900FBE0F901F9018951F920F9292
:1005F0000FB60F9211242F938F939F93EF93FF9336
:10060000E0912C01F0912D018081E0913201F09177
:10061000330182FD1BC09081809135018F5F8F7304
:1006200020913601821741F0E0913501F0E0E45E5F
:10063000FE4F958F80933501FF91EF919F918F91A0
:100640002F910F900FBE0F901F9018958081F4CFBF
:100650001F920F920FB60F9211242F933F938F93F7
:100660009F93AF93BF938091180190911901A0912E
:100670001A01B0911B013091120123E0230F2D3795
:1006800058F50196A11DB11D209312018093180108
:1006900090931901A0931A01B0931B01809113014B
:1006A00090911401A0911501B09116010196A11D20
:1006B000B11D8093130190931401A0931501B09381
:1006C0001601BF91AF919F918F913F912F910F9004
:1006D0000FBE0F901F90189526E8230F0296A11DBC
:1006E000B11DD2CF789484B5826084BD84B5816019
:1006F00084BD85B5826085BD85B5816085BD8091ED
:100700006E00816080936E00109281008091810064
:10071000826080938100809181008160809381005C
:10072000809180008160809380008091B10084601E
:100730008093B1008091B00081608093B00080917F
:100740007A00846080937A0080917A00826080933E
:100750007A0080917A00816080937A0080917A009B
:10076000806880937A001092C100E0912C01F09192
:100770002D0182E08083E0912801F091290110820F
:10078000E0912A01F0912B018FEC808310923401CB
:10079000E0913001F091310186E08083E0912E01FB
:1007A000F0912F01808180618083E0912E01F09192
:1007B0002F01808188608083E0912E01F0912F01CC
:1007C000808180688083E0912E01F0912F018081EB
:1007D0008F7D80838FE084B981E085B9E2E9F0E024
:1007E0002491EEE7F0E08491882399F090E0880F5F
:1007F000991FFC01E859FF4FA591B491FC01EE58F7
:10080000FF4F859194918FB7F894EC91E22BEC9384
:100810008FBF80E00E948700DD24D39430E1C32E97
:1008200040E0E42E40E0F42E8CE191E00E94C9010A
:10083000181619060CF043C08CE191E00E940B01E0
:10084000809317018134B9F40E946D018B01D0E0CF
:10085000C0E0C017D1077CF485B1880F85B985B198
:10086000803109F4D5B864EF71E080E090E00E9437
:100870009D022196EECF809117018234C9F40E9427
:100880006D018B01D0E0C0E0C017D1078CF485B1B9
:1008900090E09595879585B985B1811101C0C5B85E
:1008A00064EF71E080E090E00E949D022196ECCF21
:1008B00080911701833479F481E00E948700E1146C
:1008C000F10409F4B1CF0E94D501882309F4ACCF1B
:1008D0000E940000A9CF843491F780E0EECFECE1D4
:1008E000F1E01382128288EE93E0A0E0B0E084830E
:1008F0009583A683B78384E091E09183808385EC20
:1009000090E09587848784EC90E09787868780ECD9
:1009100090E0918B808B81EC90E0938B828B82ECCA
:1009200090E0958B848B86EC90E0978B868B118E74
:10093000128E138E148E08950E94A704A59F900D09
:10094000B49F900DA49F800D911D11240895A29F26
:10095000B001B39FC001A39F700D811D1124911D93
:10096000B29F700D811D1124911D0895EE0FFF1F80
:100970000590F491E02D0994F894FFCF0000000059
:0E0980000B02CF00FC005802C9010B011F0141
:107E0000112484B714BE81FFF0D085E080938100F7
:107E100082E08093C00088E18093C10086E0809377
:107E2000C20080E18093C4008EE0C9D0259A86E02C
:107E300020E33CEF91E0309385002093840096BBD3
:107E4000B09BFECF1D9AA8958150A9F7CC24DD24C4
:107E500088248394B5E0AB2EA1E19A2EF3E0BF2EE7
:107E6000A2D0813461F49FD0082FAFD0023811F036
:107E7000013811F484E001C083E08DD089C08234E0
:107E800011F484E103C0853419F485E0A6D080C0E4
:107E9000853579F488D0E82EFF2485D0082F10E0AE
:107EA000102F00270E291F29000F111F8ED06801E7
:107EB0006FC0863521F484E090D080E0DECF843638
:107EC00009F040C070D06FD0082F6DD080E0C81688
:107ED00080E7D80618F4F601B7BEE895C0E0D1E017
:107EE00062D089930C17E1F7F0E0CF16F0E7DF06D8
:107EF00018F0F601B7BEE89568D007B600FCFDCFD4
:107F0000A601A0E0B1E02C9130E011968C91119780
:107F100090E0982F8827822B932B1296FA010C0160
:107F200087BEE89511244E5F5F4FF1E0A038BF0790
:107F300051F7F601A7BEE89507B600FCFDCF97BE46
:107F4000E89526C08437B1F42ED02DD0F82E2BD052
:107F50003CD0F601EF2C8F010F5F1F4F84911BD097
:107F6000EA94F801C1F70894C11CD11CFA94CF0C13
:107F7000D11C0EC0853739F428D08EE10CD085E9AC
:107F80000AD08FE07ACF813511F488E018D01DD067
:107F900080E101D065CF982F8091C00085FFFCCF94
:107FA0009093C60008958091C00087FFFCCF809118
:107FB000C00084FD01C0A8958091C6000895E0E648
:107FC000F0E098E1908380830895EDDF803219F02E
:107FD00088E0F5DFFFCF84E1DECF1F93182FE3DFCA
:107FE0001150E9F7F2DF1F91089580E0E8DFEE27F6
:047FF000FF270994CA
:027FFE00040479
:00000001FF
