:020000040000FA
:100000000C945C000C945C010C9435010C94790008
:100010000C9479000C9479000C9479000C9479007C
:100020000C9479000C9479000C9479000C9479006C
:100030000C9479000C9479000C9479000C9479005C
:100040000C94EB000C9479000C9479000C947900DA
:100050000C9479000C9479000C9479000C9479003C
:100060000C9479000C947900000000080002010053
:100070000003040700000000000000000000000072
:10008000250028002B0000000000240027002A0083
:10009000040404040404040402020202020203032E
:1000A0000303030301020408102040800102040836
:1000B000102001020408102011241FBECFEFD8E049
:1000C000DEBFCDBF11E0A0E0B1E0E2E3F4E002C0AA
:1000D00005900D92A630B107D9F721E0A6E0B1E076
:1000E00001C01D92A331B207E1F70E9483010C9475
:1000F00017020C9400000895809108019091090165
:100100000196909309018093080123B18091080121
:10011000909109012817190611F00CF038C02091B0
:1001200006013091070181E090E0821B930B9093D0
:100130000701809306012091060130910701EFE647
:10014000F0E09491EBEAF0E08491E7E9F0E0E491EB
:10015000EE23C9F0992339F0933021F1C8F491309E
:1001600039F1923049F1F0E0EE0FFF1FE458FF4FF4
:10017000A591B4919FB7F894EC9121112AC0809574
:100180008E238C939FBF109209011092080108954D
:100190009730A9F09830C9F0943029F790918000F9
:1001A0009F7D03C0909180009F7790938000DBCF6C
:1001B00094B59F7794BDD7CF94B59F7DFBCF909199
:1001C000B0009F779093B000CECF9091B0009F7D0C
:1001D000F9CF8E2BD6CF1F920F920FB60F9211240C
:1001E0002F933F938F939F93AF93BF9380910F0172
:1001F00090911001A0911101B091120130910E0166
:1002000023E0230F2D3758F50196A11DB11D209332
:100210000E0180930F0190931001A0931101B093F0
:10022000120180910A0190910B01A0910C01B091F3
:100230000D010196A11DB11D80930A0190930B0140
:10024000A0930C01B0930D01BF91AF919F918F913D
:100250003F912F910F900FBE0F901F90189526E899
:10026000230F0296A11DB11DD2CF1F920F920FB680
:100270000F9211242F933F934F935F936F937F932C
:100280008F939F93AF93BF93EF93FF93E0910401FC
:10029000F09105010995FF91EF91BF91AF919F9169
:1002A0008F917F916F915F914F913F912F910F901F
:1002B0000FBE0F901F9018951F920F920FB60F92BE
:1002C00011242F933F934F935F936F937F938F935B
:1002D0009F93AF93BF93EF93FF93E0910201F0914F
:1002E00003010995FF91EF91BF91AF919F918F917C
:1002F0007F916F915F914F913F912F910F900FBE22
:100300000F901F901895789484B5826084BD84B551
:10031000816084BD85B5826085BD85B5816085BD00
:1003200080916E00816080936E00109281008091B8
:100330008100826080938100809181008160809340
:100340008100809180008160809380008091B10065
:1003500084608093B1008091B00081608093B00090
:1003600080917A00846080937A0080917A00826024
:1003700080937A0080917A00816080937A008091E6
:100380007A00806880937A001092C100E6EAF0E07B
:100390002491E2E9F0E084918823C1F090E0880F95
:1003A000991FFC01EA57FF4FC591D491FC01E45815
:1003B000FF4FA591B4919FB7F8948881E22FE09503
:1003C0008E2388838C91E823EC939FBFEBEAF0E0C7
:1003D0002491E7E9F0E08491882399F090E0880F78
:1003E000991FFC01EA57FF4FA591B491FC01E45815
:1003F000FF4F859194918FB7F894EC91E22BEC9399
:100400008FBF14B8E09A8CE790E09093030180933B
:100410000201809169008C7F816080936900E89A75
:10042000C0E0D0E02097F1F30E940000FBCFF894E9
:08043000FFCF05007B007B00FB
:107E0000112484B714BE81FFF0D085E080938100F7
:107E100082E08093C00088E18093C10086E0809377
:107E2000C20080E18093C4008EE0C9D0259A86E02C
:107E300020E33CEF91E0309385002093840096BBD3
:107E4000B09BFECF1D9AA8958150A9F7CC24DD24C4
:107E500088248394B5E0AB2EA1E19A2EF3E0BF2EE7
:107E6000A2D0813461F49FD0082FAFD0023811F036
:107E7000013811F484E001C083E08DD089C08234E0
:107E800011F484E103C0853419F485E0A6D080C0E4
:107E9000853579F488D0E82EFF2485D0082F10E0AE
:107EA000102F00270E291F29000F111F8ED06801E7
:107EB0006FC0863521F484E090D080E0DECF843638
:107EC00009F040C070D06FD0082F6DD080E0C81688
:107ED00080E7D80618F4F601B7BEE895C0E0D1E017
:107EE00062D089930C17E1F7F0E0CF16F0E7DF06D8
:107EF00018F0F601B7BEE89568D007B600FCFDCFD4
:107F0000A601A0E0B1E02C9130E011968C91119780
:107F100090E0982F8827822B932B1296FA010C0160
:107F200087BEE89511244E5F5F4FF1E0A038BF0790
:107F300051F7F601A7BEE89507B600FCFDCF97BE46
:107F4000E89526C08437B1F42ED02DD0F82E2BD052
:107F50003CD0F601EF2C8F010F5F1F4F84911BD097
:107F6000EA94F801C1F70894C11CD11CFA94CF0C13
:107F7000D11C0EC0853739F428D08EE10CD085E9AC
:107F80000AD08FE07ACF813511F488E018D01DD067
:107F900080E101D065CF982F8091C00085FFFCCF94
:107FA0009093C60008958091C00087FFFCCF809118
:107FB000C00084FD01C0A8958091C6000895E0E648
:107FC000F0E098E1908380830895EDDF803219F02E
:107FD00088E0F5DFFFCF84E1DECF1F93182FE3DFCA
:107FE0001150E9F7F2DF1F91089580E0E8DFEE27F6
:047FF000FF270994CA
:027FFE00040479
:00000001FF
