:100000000C9462000C948A000C948A000C948A0070
:100010000C948A000C948A000C948A000C948A0038
:100020000C948A000C948A000C948A000C948A0028
:100030000C948A000C948A000C948A000C948A0018
:100040000C942D020C948A000C949D020C9477025F
:100050000C948A000C948A000C948A000C948A00F8
:100060000C948A000C948A000000000024002700F1
:100070002A000000000023002600290000000000E4
:10008000250028002B0004040404040404040202D4
:100090000202020203030303030301020408102007
:1000A0004080010204081020010204081020000012
:1000B0000008000201000003040700000000000027
:1000C0000000170411241FBECFEFD8E0DEBFCDBF64
:1000D00021E0A2E1B1E001C01D92AE3BB207E1F721
:1000E00011E0A0E0B1E0E8E9F8E002C005900D926F
:1000F000A231B107D9F710E0C2E6D0E004C02197E1
:10010000FE010E944404C136D107C9F70E94CF0204
:100110000C944A040C940000AF92BF92CF92DF92ED
:10012000EF92FF920F931F93CF93DF936C017B01AC
:100130008B01040F151FEB015E01AE18BF08C0173D
:10014000D10759F06991D601ED91FC910190F081B0
:10015000E02DC6010995892B79F7C501DF91CF9173
:100160001F910F91FF90EF90DF90CF90BF90AF90D5
:100170000895FC01538D448D252F30E0842F90E0AD
:10018000821B930B541710F0CF9608950197089592
:10019000FC01918D828D981761F0A28DAE0FBF2F5B
:1001A000B11D5D968C91928D9F5F9F73928F90E0B1
:1001B00008958FEF9FEF0895FC01918D828D981720
:1001C00031F0828DE80FF11D858D90E008958FEF5D
:1001D0009FEF08952FB7F89480911D0190911E0113
:1001E000A0911F01B09120012FBF8093290190930E
:1001F0002A01A0932B01B0932C0181E291E00E948F
:10020000DC0097FF26C02FB7F89480911D019091D4
:100210001E01A0911F01B09120012FBF4091290123
:1002200050912A0160912B0170912C01841B950B38
:10023000A60BB70B40912501509126016091270133
:100240007091280184179507A607B707B0F28FEFC2
:100250009FEF0895FC01918D228D892F90E0805CA5
:100260009F4F821B91098F739927089581E291E036
:100270000E942A0121E0892B09F420E0822F0895B1
:1002800080E090E0892B29F00E94360181110C94C6
:1002900000000895FC01A48DA80FB92FB11DA35A29
:1002A000BF4F2C91848D90E001968F739927848F96
:1002B000A689B7892C93A089B1898C9183708064B9
:1002C0008C93938D848D981306C00288F389E02D5A
:1002D00080818F7D80830895EF92FF920F931F930B
:1002E000CF93DF93EC0181E0888F9B8D8C8D9813E9
:1002F0001AC0E889F989808185FF15C09FB7F894F5
:10030000EE89FF896083E889F98980818370806440
:1003100080839FBF81E090E0DF91CF911F910F918B
:10032000FF90EF900895F62E0B8D10E00F5F1F4F9A
:100330000F731127E02E8C8D8E110CC00FB607FCA9
:10034000FACFE889F989808185FFF5CFCE010E9437
:100350004A01F1CFEB8DEC0FFD2FF11DE35AFF4F5A
:10036000F0829FB7F8940B8FEA89FB8980818062C5
:10037000CFCFCF93DF93EC01888D8823B9F0AA8982
:10038000BB89E889F9898C9185FD03C0808186FD50
:100390000DC00FB607FCF7CF8C9185FFF2CF80819F
:1003A00085FFEDCFCE010E944A01E9CFDF91CF91C9
:1003B0000895833081F028F4813099F08230A9F0DB
:1003C00008958730A9F08830C9F08430B1F4809165
:1003D00080008F7D03C0809180008F7780938000A4
:1003E000089584B58F7784BD089584B58F7DFBCF44
:1003F0008091B0008F778093B00008958091B00015
:100400008F7DF9CF1F93CF93DF93E6EBF0E09491CC
:10041000E2EAF0E0D491EEE8F0E0C491CC23B9F048
:10042000182F992319F0892F0E94D901EC2FF0E0A1
:10043000EE0FFF1FE458FF4FA591B4918FB7F894CA
:10044000EC91111108C0D095DE23DC938FBFDF91B2
:10045000CF911F910895DE2BF8CF1F920F920FB608
:100460000F9211242F933F938F939F93AF93BF933A
:1004700080911D0190911E01A0911F01B09120015A
:1004800030911C0123E0230F2D3758F50196A11D53
:10049000B11D20931C0180931D0190931E01A09318
:1004A0001F01B09320018091180190911901A09132
:1004B0001A01B0911B010196A11DB11D8093180175
:1004C00090931901A0931A01B0931B01BF91AF91B2
:1004D0009F918F913F912F910F900FBE0F901F9082
:1004E000189526E8230F0296A11DB11DD2CF1F92A9
:1004F0000F920FB60F9211242F933F934F935F9358
:100500006F937F938F939F93AF93BF93EF93FF93DB
:1005100081E291E00E944A01FF91EF91BF91AF917A
:100520009F918F917F916F915F914F913F912F910B
:100530000F900FBE0F901F9018951F920F920FB63D
:100540000F9211242F938F939F93EF93FF93E0913A
:100550003101F09132018081E0913701F091380151
:1005600082FD1BC0908180913A018F5F8F73209133
:100570003B01821741F0E0913A01F0E0EF5DFE4F60
:10058000958F80933A01FF91EF919F918F912F91D9
:100590000F900FBE0F901F9018958081F4CF789424
:1005A00084B5826084BD84B5816084BD85B5826078
:1005B00085BD85B5816085BD80916E008160809329
:1005C0006E00109281008091810082608093810092
:1005D00080918100816080938100809180008160A2
:1005E000809380008091B10084608093B1008091FD
:1005F000B00081608093B00080917A008460809325
:100600007A0080917A00826080937A0080917A00EB
:10061000816080937A0080917A00806880937A006C
:100620001092C100CEE9D0E0FE0124910AE810E06A
:10063000F80184918823C9F090E0880F991FFC018C
:10064000E859FF4FA591B491FC01E458FF4F459143
:1006500054913FB7F8949C91822F809598239C9356
:10066000FA019081892380833FBFE2EAF0E0249180
:10067000EEE8F0E08491882399F090E0880F991FCC
:10068000FC01E859FF4FA591B491FC01E458FF4FDC
:10069000859194918FB7F894EC91E22BEC938FBFF6
:1006A00080E00E940202E0913101F091320182E08B
:1006B0008083E0912D01F0912E011082E0912F01B5
:1006C000F09130018FEC808310923901E091350177
:1006D000F091360186E08083E0913301F09134019E
:1006E000808180618083E0913301F09134018081C9
:1006F00088608083E0913301F091340180818068CB
:100700008083E0913301F091340180818F7D80837B
:1007100080E29EE4A0E0B0E0809325019093260162
:10072000A0932701B093280192EBE92E90E0F92ED7
:10073000AA24A394B12C30E0C32E30E0D32E0E9423
:10074000EA0097FD19C08D32910541F0C0970A97D4
:1007500028F081E291E00E94C800F1CF81E291E0AF
:100760000E94C8000E94EA009C01205331092A30EF
:100770003105A0F3019791F3F7018491FE01949064
:10078000F801849030E020E0882099F081110E94E7
:10079000D901E82DF0E0EE0FFF1FEE58FF4FA591B5
:1007A000B4918C91982291E080E009F490E0292F97
:1007B000382F8091160190911701821B930B97FFA0
:1007C00003C0919581959109019749F48091140195
:1007D0009091150101969093150180931401309327
:1007E000170120931601809114019091150105972E
:1007F00091F480911201909113019501281B390BFE
:10080000C90130931301209312010E940202109239
:10081000150110921401C114D10409F490CF0E9463
:100820003601882309F48BCF0E94000088CFE1E2D3
:10083000F1E01382128288EE93E0A0E0B0E08483BE
:100840009583A683B78384E091E09183808385ECD0
:1008500090E09587848784EC90E09787868780EC8A
:1008600090E0918B808B81EC90E0938B828B82EC7B
:1008700090E0958B848B86EC90E0978B868B118E25
:10088000128E138E148E0895EE0FFF1F0590F491B3
:08089000E02D0994F894FFCF5C
:10089800000000006C018C00B900B9012A01C800F1
:0208A800DC0072
:00000001FF
