:020000040000FA
:100000000C9458000C9480000C9480000C94800098
:100010000C9480000C9480000C9480000C94800060
:100020000C9480000C9480000C9480000C94800050
:100030000C9480000C9480000C9480000C94800040
:100040000C947C050C9480000C944A050C942405B7
:100050000C9480000C9480000C9480000C94800020
:100060000C94C6050C9480000000000025002800B8
:100070002B00040404040404040402020202020229
:10008000030303030303010204081020408001025C
:1000900004081020010204081020000000080002DB
:1000A0000100000304070000000000000000E50656
:1000B00011241FBECFEFD8E0DEBFCDBF11E0A0E01E
:1000C000B1E0E6EDF2E102C005900D92A833B10770
:1000D000D9F722E0A8E3B1E001C01D92A43AB2072B
:1000E000E1F710E0C8E5D0E004C02197FE010E94CE
:1000F0006309C735D107C9F70E941E070C94690927
:100100000C94000008950895AF92BF92CF92DF92B1
:10011000EF92FF920F931F93CF93DF936C017B01BC
:100120008B01040F151FEB015E01AE18BF08C0174D
:10013000D10759F06991D601ED91FC910190F081C0
:10014000E02DC6010995892B79F7C501DF91CF9183
:100150001F910F91FF90EF90DF90CF90BF90AF90E5
:100160000895FC01538D448D252F30E0842F90E0BD
:10017000821B930B541710F0CF96089501970895A2
:10018000FC01918D828D981761F0A28DAE0FBF2F6B
:10019000B11D5D968C91928D9F5F9F73928F90E0C1
:1001A00008958FEF9FEF0895FC01918D828D981730
:1001B00031F0828DE80FF11D858D90E008958FEF6D
:1001C0009FEF0895FC01918D228D892F90E0805C36
:1001D0009F4F821B91098F73992708958BEF91E0B0
:1001E0000E94E20021E0892B09F420E0822F08958B
:1001F00080E090E0892B29F00E94EE0081110C94A0
:1002000000000895FC01A48DA80FB92FB11DA35AB9
:10021000BF4F2C91848D90E001968F739927848F26
:10022000A689B7892C93A089B1898C918370806449
:100230008C93938D848D981306C00288F389E02DEA
:1002400080818F7D80830895EF92FF920F931F939B
:10025000CF93DF93EC0181E0888F9B8D8C8D981379
:100260001AC0E889F989808185FF15C09FB7F89485
:10027000EE89FF896083E889F989808183708064D1
:1002800080839FBF81E090E0DF91CF911F910F911C
:10029000FF90EF900895F62E0B8D10E00F5F1F4F2B
:1002A0000F731127E02E8C8D8E110CC00FB607FC3A
:1002B000FACFE889F989808185FFF5CFCE010E94C8
:1002C0000201F1CFEB8DEC0FFD2FF11DE35AFF4F33
:1002D000F0829FB7F8940B8FEA89FB898081806256
:1002E000CFCFCF93DF93EC01888D8823B9F0AA8913
:1002F000BB89E889F9898C9185FD03C0808186FDE1
:100300000DC00FB607FCF7CF8C9185FFF2CF80812F
:1003100085FFEDCFCE010E940201E9CFDF91CF91A1
:10032000089590E0FC01E656FF4F2491FC01EA5746
:10033000FF4F3491FC01EE58FF4FE491EE23C9F0DA
:10034000222339F0233001F1A8F4213019F12230B1
:1003500029F1F0E0EE0FFF1FE859FF4FA591B4918E
:100360008FB7F894EC91611126C030953E233C93F1
:100370008FBF08952730A9F02830C9F0243049F7FD
:10038000809180008F7D03C0809180008F77809363
:100390008000DFCF84B58F7784BDDBCF84B58F7DC0
:1003A000FBCF8091B0008F778093B000D2CF809147
:1003B000B0008F7DF9CF3E2BDACF3FB7F894809114
:1003C000810190918201A0918301B091840126B5B1
:1003D000A89B05C02F3F19F00196A11DB11D3FBF7D
:1003E000BA2FA92F982F8827BC01CD01620F711D4C
:1003F000811D911D42E0660F771F881F991F4A9546
:10040000D1F708958F929F92AF92BF92CF92DF92D1
:10041000EF92FF924B015C010E94DD016B017C01B8
:100420000E94DD016C197D098E099F09683E7340A9
:1004300081059105A8F321E0821A9108A108B1086D
:1004400088EEC80E83E0D81EE11CF11C81149104D3
:10045000A104B10429F7FF90EF90DF90CF90BF90F7
:10046000AF909F908F90089520915901260F3327C8
:10047000331F21323105ECF42091D301FC0190E0CF
:1004800080E0243069F082E00895A0915901219123
:10049000AC01475C5E4FA40FB52FB11D2C930196A4
:1004A000861798F380915901680F6093590180E095
:1004B000089581E008951092D30181E08093D201E4
:1004C0001092CD0161E082E10E94910161E083E13F
:1004D0000E949101E9EBF0E080818E7F8083808132
:1004E0008D7F808388E48093B80085E48093BC008E
:1004F0000895CF93DF9391E0909338018823B9F06A
:10050000C091B800D091BA008091BC008A7B8093E2
:10051000BC0060E082E10E94910160E083E10E9402
:1005200091010E945B02D093BA00C093B800DF91A2
:10053000CF910895CF92DF92EF92FF920F931F9386
:10054000CF93DF93D091AC0181E0D13208F09CC011
:10055000C091AB010E94DD016B017C018091D30150
:1005600081116CC082E08093D30181E08093D2013D
:100570008FEF8093D1011092D001D093CF01ABE8DF
:10058000B1E0EDEAF1E080E0D8138DC01092CE0129
:100590008091CE01CC0FC82BC093CE018091CD01AC
:1005A000813009F084C01092CD010E94DD016B0101
:1005B0007C018091CE018093BB008091D501909108
:1005C000D601A091D701B091D801892B8A2B8B2B12
:1005D000A1F00E94DD010091D5011091D60120917A
:1005E000D7013091D8016C197D098E099F09061732
:1005F00017072807390708F442C08091BC0083FD23
:10060000D8CF85EC8093BC000E94DD016B017C019A
:100610008091D301823009F44CC08091D1018F3F89
:1006200009F469C08091D101803209F466C08091DB
:10063000D101803309F463C084E026C08091D501E4
:100640009091D601A091D701B091D801892B8A2B26
:100650008B2B09F483CF0E94DD010091D50110910D
:10066000D6012091D7013091D8016C197D098E09EE
:100670009F09061717072807390708F06FCF8091E1
:10068000D4010E94790285E010928A011092AC0197
:1006900010928901DF91CF911F910F91FF90EF9000
:1006A000DF90CF9008959D9191938F5F6DCF85EEF0
:1006B000A9CF8091D5019091D601A091D701B09199
:1006C000D801892B8A2B8B2B09F4A2CF0E94DD0144
:1006D0000091D5011091D6012091D7013091D80118
:1006E0006C197D098E099F09061717072807390716
:1006F00008F08ECFC4CF80E0C7CF82E0C5CF83E0C3
:10070000C3CF0895E091DA018091D901E81730F460
:10071000F0E0E552FE4F808190E008958FEF9FEF6B
:1007200008959091DA018091D9012FEF3FEF98174A
:1007300048F4E92FF0E0E552FE4F208130E09F5F62
:100740009093DA01C90108958091D9019091DA015D
:10075000891B990B0895CF92DF92EF92FF920F932E
:100760001F93CF93DF937C01CB018A0120918901F4
:10077000222389F0EB016B01C40ED51ECC15DD05DB
:1007800069F06991D701ED91FC910190F081E02D24
:10079000C7010995F3CF642F0E943402C801DF918D
:1007A000CF911F910F91FF90EF90DF90CF90089520
:1007B000CF93DF931F92CDB7DEB769832091890174
:1007C0002223F9F02091AC01203258F021E030E0F2
:1007D000FC013383228390E080E00F90DF91CF9182
:1007E000089580918A01E82FF0E0E557FE4F998146
:1007F00090838F5F80938A018093AC0181E090E0C9
:10080000ECCF61E0CE0101960E943402F7CF682F51
:1008100088E992E00C94D80390E080E00895CF92AC
:10082000DF92EF92FF920F931F93CF93DF93D82F16
:100830000E94DD016B017C018091D301811165C0B3
:10084000CD2F81E08093D3018093D2019FEF9093CD
:10085000D1011092D0019D0F9093CF018093CE01D2
:100860008091CE01826A8093CE018091CD0181304A
:1008700009F07FC01092CD010E94DD016B017C0167
:100880008091CE018093BB008091D5019091D601DB
:10089000A091D701B091D801892B8A2B8B2BA1F085
:1008A0000E94DD010091D5011091D6012091D70160
:1008B0003091D8016C197D098E099F090617170719
:1008C0002807390708F442C08091BC0083FDD8CFC7
:1008D00085EC8093BC000E94DD016B017C0180915E
:1008E000D301813009F447C08091D0018D1710F4F5
:1008F000C091D001ADEAB1E0EBEDF1E080E08C1702
:1009000051F19D9191938F5FFACF8091D501909194
:10091000D601A091D701B091D801892B8A2B8B2BBE
:1009200009F48ACF0E94DD010091D5011091D60112
:100930002091D7013091D8016C197D098E099F094A
:10094000061717072807390708F076CF8091D401DA
:100950000E947902C0E01092DA01C093D9018C2F75
:10096000DF91CF911F910F91FF90EF90DF90CF908B
:10097000089585EEAECF8091D5019091D601A091DA
:10098000D701B091D801892B8A2B8B2B09F4A7CFE3
:100990000E94DD010091D5011091D6012091D7016F
:1009A0003091D8016C197D098E099F090617170728
:1009B0002807390708F093CFC9CFFB010190002029
:1009C000E9F73197AF01461B570BDC01ED91FC9124
:1009D0000280F381E02D099485ED8093BC00809125
:1009E000D5019091D601A091D701B091D801079679
:1009F000A11DB11D23E0B695A795979587952A95DA
:100A0000D1F72091BC0024FD03C01092D3010895BA
:100A10004091D5015091D6016091D7017091D801D4
:100A2000452B462B472B69F30097A105B10541F0F3
:100A300025E32A95F1F700000197A109B109E1CF5B
:100A40008091D4010C9479021F920F920FB60F92ED
:100A500011242F933F934F935F936F937F938F93C3
:100A60009F93AF93BF93EF93FF938BEF91E00E941F
:100A70000201FF91EF91BF91AF919F918F917F9173
:100A80006F915F914F913F912F910F900FBE0F90FB
:100A90001F9018951F920F920FB60F9211242F934B
:100AA0008F939F93EF93FF93E0910B02F0910C02D1
:100AB0008081E0911102F091120282FD1BC09081B1
:100AC000809114028F5F8F7320911502821741F07D
:100AD000E0911402F0E0E550FE4F958F80931402F0
:100AE000FF91EF919F918F912F910F900FBE0F90DB
:100AF0001F9018958081F4CF1F920F920FB60F921E
:100B000011242F933F938F939F93AF93BF93809123
:100B10007D0190917E01A0917F01B0918001309183
:100B20007C0123E0230F2D3758F50196A11DB11D3F
:100B300020937C0180937D0190937E01A0937F019F
:100B4000B09380018091810190918201A0918301F5
:100B5000B09184010196A11DB11D809381019093F4
:100B60008201A0938301B0938401BF91AF919F91C3
:100B70008F913F912F910F900FBE0F901F9018955E
:100B800026E8230F0296A11DB11DD2CF1F920F920E
:100B90000FB60F9211242F933F934F935F936F9350
:100BA0007F938F939F93AF93BF93EF93FF93809126
:100BB000B900887F803609F44AC0F0F5883209F41C
:100BC000A7C018F5803109F49BC0B8F4882309F454
:100BD000F9C0883009F494C0FF91EF91BF91AF91B3
:100BE0009F918F917F916F915F914F913F912F9145
:100BF0000F900FBE0F901F901895883109F488C090
:100C0000803251F78093D10114C0803409F49DC023
:100C100040F48033B9F38833F9F68093D10185EC41
:100C2000B0C0803509F485C0883509F496C0883491
:100C300099F60E94EC04D0CF883909F48CC038F5BD
:100C4000883729F050F4883611F0803729F683E090
:100C50008093D30110927B0157C0883809F47BC080
:100C6000803919F0803809F0B7CF80917B0180324C
:100C700008F071C0E0917B0181E08E0F80937B01D1
:100C80008091BB00F0E0E55AFE4F80833DC0803B81
:100C900039F0E0F4803A09F479C0883A09F09CCF41
:100CA00084E08093D30110925A0110925901E0918F
:100CB0008701F091880109958091590181110FC038
:100CC00081E0809359011092390109C0803C09F4F8
:100CD000A6CF883C09F4A3CF883B09F07DCFE091F3
:100CE0005A0181E08E0F80935A01F0E0E75CFE4FDD
:100CF00080818093BB0090915A018091590129C055
:100D00008091CE018093BB0085EC8093BC0064CFC2
:100D10009091D0018091CF01981758F5E091D001C2
:100D200081E08E0F8093D001F0E0E355FE4F80818B
:100D3000E9CFE091D00181E08E0F8093D0018091C6
:100D4000BB00F0E0E355FE4F80839091D00180918D
:100D5000CF019817C8F285E8D8CFE091D00181E0A3
:100D60008E0F8093D0018091BB00F0E0E355FE4FE1
:100D700080838091D20181115CCF81E08093CD018D
:100D800084EA8093BC001092D30126CF85EC809337
:100D9000BC001092D30180917B01803230F4E0914D
:100DA0007B01F0E0E55AFE4F108260917B0170E01C
:100DB000E0918501F09186018BE591E00995109213
:100DC0007B010ACF1092D10134CFEBEFF1E0138217
:100DD000128288EE93E0A0E0B0E084839583A6833E
:100DE000B78324E031E03183208325EC30E0358780
:100DF000248724EC30E03787268720EC30E0318BE5
:100E0000208B21EC30E0338B228B22EC30E0358BD1
:100E1000248B26EC30E0378B268B118E128E138EAE
:100E2000148EE8E9F2E01382128284839583A6830C
:100E3000B78386E191E0918380830895CF93DF9318
:100E4000CDB7DEB7EA970FB6F894DEBF0FBECDBFC1
:100E5000789484B5826084BD84B5816084BD85B595
:100E6000826085BD85B5816085BD80916E008160A1
:100E700080936E0010928100809181008260809347
:100E80008100809181008160809381008091800049
:100E90008160809380008091B10084608093B10074
:100EA0008091B00081608093B00080917A0084606E
:100EB00080937A0080917A00826080937A0080919A
:100EC0007A00816080937A0080917A0080688093B4
:100ED0007A001092C100E0910B02F0910C0282E0C6
:100EE0008083E0910702F09108021082E0910902EC
:100EF000F0910A028FEC808310921302E0910F02AE
:100F0000F091100286E08083E0910D02F0910E02D4
:100F1000808180618083E0910D02F0910E028081DA
:100F200088608083E0910D02F0910E0280818068DC
:100F30008083E0910D02F0910E0280818F7D80838D
:100F40001092DA011092D90110928A011092AC012C
:100F50000E945B0282E890E0909388018093870171
:100F600083E890E0909386018093850111E01093CF
:100F7000890101E50093AB016AE070E080E090E058
:100F80000E94020290E080E00E94070480E890E066
:100F90000E9407046AE070E080E090E00E94020294
:100FA00088E190E00E9407046AE070E080E090E051
:100FB0000E94020289E190E00E9407046AE070E06A
:100FC00080E090E00E94020288E290E00E94070424
:100FD00064E170E080E090E00E9402020E949A02C8
:100FE0006AE070E080E090E00E94020210938901C4
:100FF00010928A011092AC016AE070E080E090E00B
:101000000E94020290E080E00E9407046AE070E023
:1010100080E090E00E94020280E290E00E940704DB
:101020006AE070E080E090E00E94020264E271E019
:1010300088E992E00E94DD046AE070E080E090E0E0
:101040000E9402020E949A02109389010093AB0150
:1010500010928A011092AC016AE070E080E090E0AA
:101060000E94020290E080E00E9407046AE070E0C3
:1010700080E090E00E94020280E290E00E9407047B
:101080006AE070E080E090E00E9402020E949A0212
:1010900080E190E00E940F046AE070E080E090E060
:1010A0000E9402027E0182E2E80EF11C6E0192E3D0
:1010B000C90ED11C87016AE070E080E090E00E94D8
:1010C000020288E992E00E949103F80181938F0166
:1010D000CE16DF0681F76AE070E080E090E00E94C3
:1010E00002026AE070E080E090E00E940202F701F4
:1010F00061917F018BEF91E00E942401E016F106DF
:1011000081F781E08093890110928A011092AC01ED
:101110006AE070E080E090E00E94020290E080E0EF
:101120000E9407046AE070E080E090E00E94020202
:1011300080E890E00E9407046AE070E080E090E0C0
:101140000E9402020E949A0283E090E00E940F0433
:101150006AE070E080E090E00E9402025E01F5E348
:10116000AF0EB11C7E018BE3E80EF11C85016AE035
:1011700070E080E090E00E94020288E992E00E9424
:101180009103F801819391938F01EE15FF0579F793
:101190006AE070E080E090E00E94020265E371E0A6
:1011A0008BEF91E00E94DD046AE070E080E090E067
:1011B0000E940202F501C190D1905F010D2C000C3C
:1011C000EE08FF08F7FE42C06DE28BEF91E00E944F
:1011D000240122273327A9012C193D094E095F0953
:1011E00019A2CE0181967C019AE0492E512C612CE6
:1011F000712CCA01B901A30192010E944109605DED
:10120000F70162937F01211531054105510589F7E9
:10121000E114F10429F0B7018BEF91E00E94DD04A5
:1012200065E371E08BEF91E00E94DD04A016B1064A
:1012300009F0BACF00E010E001151105E9F30E94B2
:10124000EE008823C9F30E940000F6CFA7019601A3
:1012500019A2CE0181967C018AE0482E512C612C86
:10126000712CCA01B901A30192010E944109605D7C
:10127000F70162937F01211531054105510589F779
:10128000C7CFA1E21A2EAA1BBB1BFD010DC0AA1FCE
:10129000BB1FEE1FFF1FA217B307E407F50720F0DF
:1012A000A21BB30BE40BF50B661F771F881F991F5A
:1012B0001A9469F760957095809590959B01AC01A3
:1012C000BD01CF010895EE0FFF1F0590F491E02DB1
:1012D0000994F894FFCF0000000024018400B100BD
:1012E0007101E200C000D40000000000D803AB038D
:1012F0000C048103A4039103820365636F6C652072
:0E1300006D6F68616D6D61646961000D0A00BA
:107E0000112484B714BE81FFF0D085E080938100F7
:107E100082E08093C00088E18093C10086E0809377
:107E2000C20080E18093C4008EE0C9D0259A86E02C
:107E300020E33CEF91E0309385002093840096BBD3
:107E4000B09BFECF1D9AA8958150A9F7CC24DD24C4
:107E500088248394B5E0AB2EA1E19A2EF3E0BF2EE7
:107E6000A2D0813461F49FD0082FAFD0023811F036
:107E7000013811F484E001C083E08DD089C08234E0
:107E800011F484E103C0853419F485E0A6D080C0E4
:107E9000853579F488D0E82EFF2485D0082F10E0AE
:107EA000102F00270E291F29000F111F8ED06801E7
:107EB0006FC0863521F484E090D080E0DECF843638
:107EC00009F040C070D06FD0082F6DD080E0C81688
:107ED00080E7D80618F4F601B7BEE895C0E0D1E017
:107EE00062D089930C17E1F7F0E0CF16F0E7DF06D8
:107EF00018F0F601B7BEE89568D007B600FCFDCFD4
:107F0000A601A0E0B1E02C9130E011968C91119780
:107F100090E0982F8827822B932B1296FA010C0160
:107F200087BEE89511244E5F5F4FF1E0A038BF0790
:107F300051F7F601A7BEE89507B600FCFDCF97BE46
:107F4000E89526C08437B1F42ED02DD0F82E2BD052
:107F50003CD0F601EF2C8F010F5F1F4F84911BD097
:107F6000EA94F801C1F70894C11CD11CFA94CF0C13
:107F7000D11C0EC0853739F428D08EE10CD085E9AC
:107F80000AD08FE07ACF813511F488E018D01DD067
:107F900080E101D065CF982F8091C00085FFFCCF94
:107FA0009093C60008958091C00087FFFCCF809118
:107FB000C00084FD01C0A8958091C6000895E0E648
:107FC000F0E098E1908380830895EDDF803219F02E
:107FD00088E0F5DFFFCF84E1DECF1F93182FE3DFCA
:107FE0001150E9F7F2DF1F91089580E0E8DFEE27F6
:047FF000FF270994CA
:027FFE00040479
:00000001FF
