:100000000C945D000C9485000C9485000C94850084
:100010000C9485000C9485000C9485000C9485004C
:100020000C9485000C9485000C9485000C94EF02D0
:100030000C9485000C9485000C9485000C9485002C
:100040000C94A5020C9485000C9473020C944D0240
:100050000C9485000C9485000C9485000C9485000C
:100060000C9485000C94850000000008000201003B
:100070000003040700000000000000000000000072
:10008000250028002B0000000000240027002A0083
:10009000040404040404040402020202020203032E
:1000A0000303030301020408102040800102040836
:1000B0001020010204081020AB0311241FBECFEF53
:1000C000D8E0DEBFCDBF11E0A0E0B1E0EEEFFCE094
:1000D00002C005900D92AC32B107D9F721E0ACE235
:1000E000B1E001C01D92AB3FB207E1F710E0CDE5F2
:1000F000D0E004C02197FE010E947706CC35D107DD
:10010000C9F70E9408040C947D060C940000AF927D
:10011000BF92CF92DF92EF92FF920F931F93CF93F4
:10012000DF936C017B018B01040F151FEB015E0156
:10013000AE18BF08C017D10759F06991D601ED91EB
:10014000FC910190F081E02DC6010995892B79F78A
:10015000C501DF91CF911F910F91FF90EF90DF903C
:10016000CF90BF90AF900895FC01538D448D252F03
:1001700030E0842F90E0821B930B541710F0CF9641
:10018000089501970895FC01918D828D981761F073
:10019000A28DAE0FBF2FB11D5D968C91928D9F5F8A
:1001A0009F73928F90E008958FEF9FEF0895FC0169
:1001B000918D828D981731F0828DE80FF11D858D1C
:1001C00090E008958FEF9FEF08952FB7F8948091F6
:1001D000320190913301A0913401B09135012FBFCC
:1001E00080933E0190933F01A0934001B093410161
:1001F00086E391E00E94D70097FF26C02FB7F894BE
:100200008091320190913301A0913401B091350178
:100210002FBF40913E0150913F016091400170918C
:100220004101841B950BA60BB70B40913A015091ED
:100230003B0160913C0170913D0184179507A60731
:10024000B707B0F28FEF9FEF0895FC01918D228DDB
:10025000892F90E0805C9F4F821B91098F739927B3
:10026000089586E391E00E94250121E0892B09F49D
:1002700020E0822F089580E090E0892B29F00E94F1
:10028000310181110C9400000895FC01A48DA80F88
:10029000B92FB11DA35ABF4F2C91848D90E00196C8
:1002A0008F739927848FA689B7892C93A089B189E8
:1002B0008C91837080648C93938D848D981306C089
:1002C0000288F389E02D80818F7D80830895EF92ED
:1002D000FF920F931F93CF93DF93EC0181E0888F00
:1002E0009B8D8C8D98131AC0E889F989808185FFD0
:1002F00015C09FB7F894EE89FF896083E889F98972
:1003000080818370806480839FBF81E090E0DF9173
:10031000CF911F910F91FF90EF900895F62E0B8DC6
:1003200010E00F5F1F4F0F731127E02E8C8D8E1181
:100330000CC00FB607FCFACFE889F989808185FFE8
:10034000F5CFCE010E944501F1CFEB8DEC0FFD2FD3
:10035000F11DE35AFF4FF0829FB7F8940B8FEA89A3
:10036000FB8980818062CFCFCF93DF93EC01888DB2
:100370008823B9F0AA89BB89E889F9898C9185FD20
:1003800003C0808186FD0DC00FB607FCF7CF8C91AE
:1003900085FFF2CF808185FFEDCFCE010E94450120
:1003A000E9CFDF91CF91089590E0FC01E859FF4F2C
:1003B0002491FC01EC55FF4F3491FC01E057FF4FB5
:1003C000E491EE23C9F0222339F0233001F1A8F49F
:1003D000213019F1223029F1F0E0EE0FFF1FE4582F
:1003E000FF4FA591B4918FB7F894EC91611126C09D
:1003F00030953E233C938FBF08952730A9F02830D5
:10040000C9F0243049F7809180008F7D03C080912E
:1004100080008F7780938000DFCF84B58F7784BD95
:10042000DBCF84B58F7DFBCF8091B0008F77809339
:10043000B000D2CF8091B0008F7DF9CF3E2BDACFC4
:100440003FB7F89480912E0190912F01A091300137
:10045000B091310126B5A89B05C02F3F19F0019638
:10046000A11DB11D3FBFBA2FA92F982F8827BC010E
:10047000CD01620F711D811D911D42E0660F771F36
:10048000881F991F4A95D1F7089542E050E062E134
:1004900071E086E391E00C9487001F920F920FB6F3
:1004A0000F9211242F933F934F935F936F937F93FA
:1004B0008F939F93AF93BF93EF93FF9386E391E066
:1004C0000E944501FF91EF91BF91AF919F918F9154
:1004D0007F916F915F914F913F912F910F900FBE40
:1004E0000F901F9018951F920F920FB60F92112424
:1004F0002F938F939F93EF93FF93E0914601F09199
:1005000047018081E0914C01F0914D0182FD1BC0BB
:10051000908180914F018F5F8F73209150018217DE
:1005200041F0E0914F01F0E0EA5CFE4F958F80933F
:100530004F01FF91EF919F918F912F910F900FBEDF
:100540000F901F9018958081F4CF1F920F920FB6D5
:100550000F9211242F933F938F939F93AF93BF9349
:100560008091320190913301A0913401B091350115
:1005700030912D0123E0230F2D3758F50196A11D51
:10058000B11D20932D018093320190933301A093EC
:100590003401B093350180912E0190912F01A091EB
:1005A0003001B09131010196A11DB11D80932E0142
:1005B00090932F01A0933001B0933101BF91AF917F
:1005C0009F918F913F912F910F900FBE0F901F9091
:1005D000189526E8230F0296A11DB11DD2CF1F92B8
:1005E0000F920FB60F9211242F933F934F935F9367
:1005F0006F937F938F939F93AF93BF93CF93DF932B
:10060000EF93FF9380912C01C091F701D0E087FF19
:1006100024C0109285001092840080912C018F5F7D
:1006200080932C0180912C01082E000C990B8C17C3
:100630009D0724F480912C018C30C4F180918400BA
:1006400090918500049680349C4908F47AC080918A
:10065000840090918500049676C080912C01082E2C
:10066000000C990B8C179D07C4F6E0912C018E2F7E
:10067000EE0F990BFC01EE0FFF1FE80FF91FED5273
:10068000FE4F808186FFC9CFE0912C018E2FEE0FA7
:10069000990BFC01EE0FFF1FE80FF91FED52FE4F03
:1006A000808160E08F730E94D401B7CF20918400D5
:1006B00030918500E0912C018E2FEE0F990BFC01FB
:1006C000EE0FFF1FE80FF91FED52FE4F818192815F
:1006D000820F931F9093890080938800E0912C01F2
:1006E0008E2FEE0F990BFC01EE0FFF1FE80FF91F85
:1006F000ED52FE4F808186FF11C0E0912C018E2FBC
:10070000EE0F990BFC01EE0FFF1FE80FF91FED52E2
:10071000FE4F808161E08F730E94D401FF91EF91C1
:10072000DF91CF91BF91AF919F918F917F916F9109
:100730005F914F913F912F910F900FBE0F901F909F
:10074000189580E49CE990938900809388008FEF4E
:1007500080932C01E3CF109239011092380188EE7A
:1007600093E0A0E0B0E080933A0190933B01A09326
:100770003C01B0933D0184E091E090933701809378
:10078000360185EC90E0909343018093420184EC24
:1007900090E0909345018093440180EC90E0909329
:1007A00047018093460181EC90E09093490180934A
:1007B000480182EC90E090934B0180934A0186ECD3
:1007C00090E090934D0180934C0110924F01109254
:1007D000500110925101109252018091F7018C301A
:1007E00098F491E0980F9093F7018093F80190E0CE
:1007F000FC01EE0FFF1FE80FF91FED52FE4F88EBD3
:100800009BE09283818308958FEF8093F801089590
:10081000789484B5826084BD84B5816084BD85B5DB
:10082000826085BD85B5816085BD80916E008160E7
:1008300080936E001092810080918100826080938D
:10084000810080918100816080938100809180008F
:100850008160809380008091B10084608093B100BA
:100860008091B00081608093B00080917A008460B4
:1008700080937A0080917A00826080937A008091E0
:100880007A00816080937A0080917A0080688093FA
:100890007A001092C100E0914601F091470182E098
:1008A0008083E0914201F09143011082E091440184
:1008B000F09145018FEC808310924E01E0914A0146
:1008C000F0914B0186E08083E0914801F09149016D
:1008D000808180618083E0914801F09149018081AD
:1008E00088608083E0914801F091490180818068AF
:1008F0008083E0914801F091490180818F7D808360
:100900008091F8018C3008F068C0EBEAF0E02491A7
:10091000E7E9F0E08491882399F090E0880F991F2F
:10092000FC01EA57FF4FA591B491FC01E458FF4F39
:10093000859194918FB7F894EC91E22BEC938FBF53
:100940008091F801282F30E0F901EE0FFF1FE20F30
:10095000F31FED52FE4F9081907C97609083109230
:10096000F9011092FA012CE0622F0E946B06829F1F
:10097000B001112430E020E0AB01420F531FFA0117
:10098000EE0FFF1FE40FF51FED52FE4F908196FD15
:1009900016C02F5F3F4F2C30310571F781110FC00A
:1009A0001092800082E08093810010928500109266
:1009B0008400B19A80916F00826080936F00E09113
:1009C000F8018E2F90E0FC01EE0FFF1FE80FF91FDA
:1009D000ED52FE4F80818064808308E810E0C8E516
:1009E000D2E0B4EB4B2E512C612C712CA0E02A2EBE
:1009F000A0E03A2E86E391E00E942501892B09F4BC
:100A0000CAC00E94E500FC0197FDC1C08D3291056E
:100A100041F0C0970A9728F086E391E00E94C30056
:100A2000F0CFC12CD12C7601B12CE130F105D9F0F9
:100A3000ED32F10509F4A8C0CF01C0970A9798F4E8
:100A4000AAE0B0E0A70196010E9427066F01FF0F00
:100A5000EE08FF08C60ED71EE81EF91E20E3C21AD4
:100A6000D108E108F10886E391E00E94C3000E94EA
:100A7000E500FC01C0970A97C0F2E130F105A9F248
:100A8000BB2041F0F094E094D094C094C11CD11CE0
:100A9000E11CF11C460140E2C41642E0D406B4F564
:100AA0008091F9014801881A910887FD9394880C78
:100AB000991C880C991C092C000CAA08BB08809171
:100AC000FA019E01281B310987FD3395220F331F40
:100AD000220F331F032E000C440B550B2819390924
:100AE0004A095B09D601A53BB10514F0A4EBB0E0BF
:100AF000B7FF02C0B0E0A0E00E943206A30192015D
:100B00000E940806820E931EA41EB51E2091F801B5
:100B10002C3078F58091F901A801481B510987FD17
:100B20005395CA01880F991F880F991F8816990637
:100B300084F08091FA01AE01481B510987FD53955D
:100B4000CA01880F991F880F991F881699060CF4FF
:100B5000C4010297880F991F4FB7F89430E0F9014C
:100B6000EE0FFF1FE20FF31FED52FE4F92838183C2
:100B70004FBF86E391E00E942501892BC1F086E3F7
:100B800091E00E94C300F5CFBB24B3946CCFC12C7D
:100B9000D12C76017FCF0E94450245E150E065E10E
:100BA00071E086E391E00E9487000E9445020E9466
:100BB00020024B015C0188EEC82E83E0D82EE12C88
:100BC000F12C0E942002681979098A099B09683E64
:100BD000734081059105A8F351E0C51AD108E108D9
:100BE000F10888EE880E83E0981EA11CB11CC11488
:100BF000D104E104F10429F72114310409F4FACEF7
:100C00000E943101882309F4F5CE0E940000EECE47
:100C1000052E97FB1EF400940E941F0657FD07D077
:100C20000E943A0607FC03D04EF40C941F06509520
:100C30004095309521953F4F4F4F5F4F08959095C8
:100C40008095709561957F4F8F4F9F4F08950E94BB
:100C50005C06A59F900DB49F900DA49F800D911DE3
:100C600011240895B7FF0C9427060E942706821BC3
:100C7000930B0895A1E21A2EAA1BBB1BFD010DC008
:100C8000AA1FBB1FEE1FFF1FA217B307E407F5073C
:100C900020F0A21BB30BE40BF50B661F771F881F18
:100CA000991F1A9469F760957095809590959B01AE
:100CB000AC01BD01CF010895A29FB001B39FC00157
:100CC000A39F700D811D1124911DB29F700D811D78
:100CD0001124911D0895991B79E004C0991F96175E
:100CE00008F0961B881F7A95C9F780950895EE0F36
:0E0CF000FF1F0590F491E02D0994F894FFCFBA
:100CFE000000000067018700B400B4012501C300A5
:100D0E00D7000D0A00446F6E6E657A20616E676CB7
:0C0D1E006520656E20646567726500004A
:00000001FF
