:100000000C945D000C9485000C9485000C94850084
:100010000C9485000C9485000C9485000C9485004C
:100020000C9485000C9485000C9485000C94B90305
:100030000C9485000C9485000C9485000C9485002C
:100040000C9417030C9485000C9487030C946103A3
:100050000C9485000C9485000C9485000C9485000C
:100060000C9485000C94850000000008000201003B
:100070000003040700000000000000000000000072
:10008000250028002B0000000000240027002A0083
:10009000040404040404040402020202020203032E
:1000A0000303030301020408102040800102040836
:1000B0001020010204081020750411241FBECFEF88
:1000C000D8E0DEBFCDBF11E0A0E0B1E0EEEDFCE096
:1000D00002C005900D92A231B107D9F721E0A2E14B
:1000E000B1E001C01D92A43EB207E1F710E0CDE5FA
:1000F000D0E004C02197FE010E946706CC35D107ED
:10010000C9F70E94D2040C946D060C94000090E094
:10011000FC01EC55FF4F249180579F4FFC018491C7
:10012000882399F090E0880F991FFC01EA57FF4F50
:10013000A591B491FC01E458FF4F859194918FB73C
:10014000F894EC91E22BEC938FBF0895CF92DF925D
:10015000EF92FF92DC01A03282E0B807D4F5A53B14
:10016000B10514F0A4EBB0E04091E20128E830E0E2
:10017000241B310947FD3395220F331F220F331FF4
:100180006901330FEE08FF084091E30128E532E0F2
:10019000241B310947FD3395220F331F220F331FD4
:1001A000032E000C440B550B2C193D094E095F0919
:1001B000B7FF02C0B0E0A0E00E94220624EB30E0CE
:1001C00040E050E00E94F805C20ED31EE41EF51E6A
:1001D000D601E091E101EC3080F52091E20188E860
:1001E00090E0821B910927FD9395880F991F880F36
:1001F000991FA817B90784F02091E30188E592E0E0
:10020000821B910927FD9395880F991F880F991FCD
:10021000A817B9070CF4CD010297880F991F4FB7A3
:10022000F8942E2F30E0F901EE0FFF1FE20FF31FBD
:10023000E454FE4F928381834FBFFF90EF90DF9095
:10024000CF900895AF92BF92CF92DF92EF92FF923C
:100250000F931F93CF93DF936C017B018B01040FEE
:10026000151FEB015E01AE18BF08C017D10759F08A
:100270006991D601ED91FC910190F081E02DC601CC
:100280000995892B79F7C501DF91CF911F910F91C6
:10029000FF90EF90DF90CF90BF90AF900895FC015A
:1002A000538D448D252F30E0842F90E0821B930BDB
:1002B000541710F0CF96089501970895FC01918D81
:1002C000828D981761F0A28DAE0FBF2FB11D5D9684
:1002D0008C91928D9F5F9F73928F90E008958FEF26
:1002E0009FEF0895FC01918D828D981731F0828DDA
:1002F000E80FF11D858D90E008958FEF9FEF089531
:100300002FB7F89480911B0190911C01A0911D01C1
:10031000B0911E012FBF8093270190932801A093D5
:100320002901B0932A018FE191E00E94720197FFA9
:1003300026C02FB7F89480911B0190911C01A091C9
:100340001D01B0911E012FBF40912701509128013E
:100350006091290170912A01841B950BA60BB70BA4
:100360004091230150912401609125017091260153
:1003700084179507A607B707B0F28FEF9FEF089590
:10038000CF92DF92EF92FF92CF930E948001FC0107
:1003900097FD4EC08D32910521F0C0970A9708F065
:1003A00040C0C12CD12C7601C0E0E130F105D1F084
:1003B000ED32F105D9F1CF01C0970A9798F4AAE080
:1003C000B0E0A70196010E9417066F01FF0FEE082B
:1003D000FF08C60ED71EE81EF91E80E3C81AD10812
:1003E000E108F1088FE191E00E945E010E94800126
:1003F000FC01C0970A97C8F2E130F105B1F2CC23B5
:1004000041F0F094E094D094C094C11CD11CE11C44
:10041000F11CC701B601CF91FF90EF90DF90CF9014
:1004200008958FE191E00E945E01AFCFC1E0DACF85
:10043000C12CD12C7601EDCFFC01918D228D892F1D
:1004400090E0805C9F4F821B91098F7399270895DC
:100450008FE191E00E941C0221E0892B09F420E049
:10046000822F089580E090E0892B29F00E942802D5
:1004700081110C9400000895FC01A48DA80FB92FE0
:10048000B11DA35ABF4F2C91848D90E001968F73BC
:100490009927848FA689B7892C93A089B1898C91DB
:1004A000837080648C93938D848D981306C002882A
:1004B000F389E02D80818F7D80830895EF92FF92F4
:1004C0000F931F93CF93DF93EC0181E0888F9B8D77
:1004D0008C8D98131AC0E889F989808185FF15C031
:1004E0009FB7F894EE89FF896083E889F989808154
:1004F0008370806480839FBF81E090E0DF91CF9123
:100500001F910F91FF90EF900895F62E0B8D10E044
:100510000F5F1F4F0F731127E02E8C8D8E110CC0B3
:100520000FB607FCFACFE889F989808185FFF5CFFE
:10053000CE010E943C02F1CFEB8DEC0FFD2FF11D9F
:10054000E35AFF4FF0829FB7F8940B8FEA89FB893B
:1005500080818062CFCFCF93DF93EC01888D882399
:10056000B9F0AA89BB89E889F9898C9185FD03C016
:10057000808186FD0DC00FB607FCF7CF8C9185FFFB
:10058000F2CF808185FFEDCFCE010E943C02E9CF02
:10059000DF91CF91089590E0FC01E859FF4F24913D
:1005A000FC01EC55FF4F3491FC01E057FF4FE49103
:1005B000EE23C9F0222339F0233001F1A8F42130D1
:1005C00019F1223029F1F0E0EE0FFF1FE458FF4F40
:1005D000A591B4918FB7F894EC91611126C0309534
:1005E0003E233C938FBF08952730A9F02830C9F0EF
:1005F000243049F7809180008F7D03C08091800076
:100600008F7780938000DFCF84B58F7784BDDBCF79
:1006100084B58F7DFBCF8091B0008F778093B00041
:10062000D2CF8091B0008F7DF9CF3E2BDACF1F92D1
:100630000F920FB60F9211242F933F938F939F9396
:10064000AF93BF9380911B0190911C01A0911D015C
:10065000B0911E0130911A0123E0230F2D3758F578
:100660000196A11DB11D20931A0180931B01909347
:100670001C01A0931D01B0931E0180911601909161
:100680001701A0911801B09119010196A11DB11D8A
:100690008093160190931701A0931801B09319014C
:1006A000BF91AF919F918F913F912F910F900FBE6E
:1006B0000F901F90189526E8230F0296A11DB11DDB
:1006C000D2CF1F920F920FB60F9211242F933F9308
:1006D0004F935F936F937F938F939F93AF93BF934A
:1006E000EF93FF938FE191E00E943C02FF91EF9125
:1006F000BF91AF919F918F917F916F915F914F913A
:100700003F912F910F900FBE0F901F9018951F9241
:100710000F920FB60F9211242F938F939F93EF9305
:10072000FF93E0912F01F09130018081E09135013C
:10073000F091360182FD1BC09081809138018F5F5E
:100740008F7320913901821741F0E0913801F0E078
:10075000E15EFE4F958F80933801FF91EF919F915D
:100760008F912F910F900FBE0F901F901895808141
:10077000F4CF1F920F920FB60F9211242F933F9335
:100780004F935F936F937F938F939F93AF93BF9399
:10079000CF93DF93EF93FF9380911201C091E0011B
:1007A000D0E087FF24C010928500109284008091D1
:1007B00012018F5F8093120180911201082E000CAC
:1007C000990B8C179D0724F4809112018C30C4F191
:1007D0008091840090918500049680349C4908F4AF
:1007E0007AC08091840090918500049676C08091B3
:1007F0001201082E000C990B8C179D07C4F6E0918E
:1008000012018E2FEE0F990BFC01EE0FFF1FE80F68
:10081000F91FE454FE4F808186FFC9CFE091120199
:100820008E2FEE0F990BFC01EE0FFF1FE80FF91F43
:10083000E454FE4F808160E08F730E94CB02B7CFFB
:100840002091840030918500E09112018E2FEE0FEF
:10085000990BFC01EE0FFF1FE80FF91FE454FE4F48
:1008600081819281820F931F9093890080938800E9
:10087000E09112018E2FEE0F990BFC01EE0FFF1F7E
:10088000E80FF91FE454FE4F808186FF11C0E0910C
:1008900012018E2FEE0F990BFC01EE0FFF1FE80FD8
:1008A000F91FE454FE4F808161E08F730E94CB02F8
:1008B000FF91EF91DF91CF91BF91AF919F918F9178
:1008C0007F916F915F914F913F912F910F900FBE4C
:1008D0000F901F90189580E49CE990938900809375
:1008E00088008FEF80931201E3CF109222011092C3
:1008F000210188EE93E0A0E0B0E080932301909383
:100900002401A0932501B093260184E091E0909307
:10091000200180931F0185EC90E090932C0180933F
:100920002B0184EC90E090932E0180932D0180ECBC
:1009300090E09093300180932F0181EC90E09093B0
:1009400032018093310182EC90E0909334018093E6
:10095000330186EC90E0909336018093350110923C
:1009600038011092390110923A0110923B018091A6
:10097000E0018C3098F491E0980F9093E00180931F
:10098000E10190E0FC01EE0FFF1FE80FF91FE454B6
:10099000FE4F88EB9BE09283818308958FEF8093D5
:1009A000E1010895789484B5826084BD84B5816046
:1009B00084BD85B5826085BD85B5816085BD80912A
:1009C0006E00816080936E001092810080918100A2
:1009D000826080938100809181008160809381009A
:1009E000809180008160809380008091B10084605C
:1009F0008093B1008091B00081608093B0008091BD
:100A00007A00846080937A0080917A00826080937B
:100A10007A0080917A00816080937A0080917A00D8
:100A2000806880937A001092C10082E00E94870063
:100A300060E082E00E94CB028091E1018C3008F0FE
:100A400052C089E00E9487008091E101282F30E0A8
:100A5000F901EE0FFF1FE20FF31FE454FE4F9081E8
:100A6000907C996090839EE89093E20194E6909345
:100A7000E3012CE0622F0E945B06829FB0011124EB
:100A800030E020E0AB01420F531FFA01EE0FFF1FD1
:100A9000E40FF51FE454FE4F908196FD16C02F5FC2
:100AA0003F4F2C30310571F781110FC0109280003B
:100AB00082E0809381001092850010928400B19AA8
:100AC00080916F00826080936F00E091E1018E2F32
:100AD00090E0FC01EE0FFF1FE80FF91FE454FE4FFA
:100AE000808180648083E0912F01F091300182E069
:100AF0008083E0912B01F0912C011082E0912D0177
:100B0000F0912E018FEC808310923701E091330138
:100B1000F091340186E08083E0913101F09132015F
:100B2000808180618083E0913101F0913201808188
:100B300088608083E0913101F0913201808180688A
:100B40008083E0913101F091320180818F7D80833B
:100B5000C0E0D0E08FE191E00E941C021816190657
:100B60009CF58FE191E00E945E0180931501813434
:100B700099F40E94C0016B017093140160931301FA
:100B80008FE191E00E941C0218161906D4F48FE13F
:100B900091E00E945E01F4CF823401F50E94C00111
:100BA0006B0170931401609313018FE191E00E9437
:100BB0001C02181619062CF48FE191E00E945E01C8
:100BC000F4CFC6010E94A600209721F20E942802BD
:100BD000882309F4BFCF0E940000BCCF61E08334BA
:100BE00019F0843489F760E082E00E94CB02ECCFF8
:100BF000052E97FB1EF400940E940F0657FD07D0A8
:100C00000E942A0607FC03D04EF40C940F06509560
:100C10004095309521953F4F4F4F5F4F08959095E8
:100C20008095709561957F4F8F4F9F4F08950E94DB
:100C30004C06A59F900DB49F900DA49F800D911D13
:100C400011240895B7FF0C9417060E941706821B03
:100C5000930B0895A1E21A2EAA1BBB1BFD010DC028
:100C6000AA1FBB1FEE1FFF1FA217B307E407F5075C
:100C700020F0A21BB30BE40BF50B661F771F881F38
:100C8000991F1A9469F760957095809590959B01CE
:100C9000AC01BD01CF010895A29FB001B39FC00177
:100CA000A39F700D811D1124911DB29F700D811D98
:100CB0001124911D0895991B79E004C0991F96177E
:100CC00008F0961B881F7A95C9F780950895EE0F56
:0E0CD000FF1F0590F491E02D0994F894FFCFDA
:100CDE00000000005E0222014F01AB021C025E0109
:020CEE00720191
:00000001FF
