:100000000C945C000C945B010C9434010C9479000A
:100010000C9479000C9479000C9479000C9479007C
:100020000C9479000C9479000C9479000C9479006C
:100030000C9479000C9479000C9479000C9479005C
:100040000C94EA000C9479000C9479000C947900DB
:100050000C9479000C9479000C9479000C9479003C
:100060000C9479000C947900000000002400270013
:100070002A0000000000250028002B0004040404CE
:100080000404040402020202020203030303030342
:10009000010204081020408001020408102001021F
:1000A00004081020000000080002010000030407FB
:1000B000000000000000000011241FBECFEFD8E0B8
:1000C000DEBFCDBF11E0A0E0B1E0E4E3F4E002C0A8
:1000D00005900D92A430B107D9F721E0A4E0B1E07A
:1000E00001C01D92A131B207E1F70E9482010C9478
:1000F00018020C940000ECEAF0E02491E8E9F0E04A
:100100009491E4E8F0E0E491EE23C9F0222339F081
:10011000233001F1A8F4213019F1223029F1F0E067
:10012000EE0FFF1FEE58FF4FA591B4912FB7F89433
:10013000EC91811126C090959E239C932FBF08952A
:100140002730A9F02830C9F0243049F720918000E9
:100150002F7D03C0209180002F7720938000DFCF78
:1001600024B52F7724BDDBCF24B52F7DFBCF209185
:10017000B0002F772093B000D2CF2091B0002F7D18
:10018000F9CF9E2BDACF0895809106019091070157
:10019000019690930701809306018091060190914A
:1001A00007010597B1F4209104013091050181E028
:1001B00090E0821B930B9093050180930401809142
:1001C0000401909105010E947B001092070110929A
:1001D000060108951F920F920FB60F9211242F93CC
:1001E0003F938F939F93AF93BF9380910D01909115
:1001F0000E01A0910F01B091100130910C0123E08C
:10020000230F2D3758F50196A11DB11D20930C0128
:1002100080930D0190930E01A0930F01B0931001F4
:100220008091080190910901A0910A01B0910B0100
:100230000196A11DB11D8093080190930901A0931F
:100240000A01B0930B01BF91AF919F918F913F91A4
:100250002F910F900FBE0F901F90189526E8230F37
:100260000296A11DB11DD2CF1F920F920FB60F9211
:1002700011242F933F934F935F936F937F938F93AB
:100280009F93AF93BF93EF93FF93E0910201F0919F
:1002900003010995FF91EF91BF91AF919F918F91CC
:1002A0007F916F915F914F913F912F910F900FBE72
:1002B0000F901F9018951F920F920FB60F92112456
:1002C0002F933F934F935F936F937F938F939F935E
:1002D000AF93BF93EF93FF93E0910001F091010181
:1002E0000995FF91EF91BF91AF919F918F917F9170
:1002F0006F915F914F913F912F910F900FBE0F9093
:100300001F901895789484B5826084BD84B581600F
:1003100084BD85B5826085BD85B5816085BD8091D0
:100320006E00816080936E00109281008091810048
:100330008260809381008091810081608093810040
:10034000809180008160809380008091B100846002
:100350008093B1008091B00081608093B000809163
:100360007A00846080937A0080917A008260809322
:100370007A0080917A00816080937A0080917A007F
:10038000806880937A001092C100E2E9F0E0249145
:10039000EEE7F0E084918823C1F090E0880F991F88
:1003A000FC01E859FF4FC591D491FC01EE58FF4F75
:1003B000A591B4919FB7F8948881E22FE0958E23A0
:1003C00088838C91E823EC939FBFE8E9F0E02491C7
:1003D000E4E8F0E08491882399F090E0880F991F79
:1003E000FC01E859FF4FA591B491FC01EE58FF4F75
:1003F000859194918FB7F894EC91E22BEC938FBF99
:1004000080E00E947B00E09A84EC90E090930101F0
:1004100080930001809169008C7F816080936900E6
:10042000E89AC0E0D0E02097F1F30E940000FBCFF3
:04043000F894FFCF6E
:04043400C300C3003E
:00000001FF
